{
  "contractName": "WineSupplyChain",
  "abi": [
    {
      "constant": false,
      "inputs": [
        {
          "name": "account",
          "type": "address"
        }
      ],
      "name": "addConsumer",
      "outputs": [],
      "payable": false,
      "stateMutability": "nonpayable",
      "type": "function",
      "signature": "0x112940f9"
    },
    {
      "constant": true,
      "inputs": [
        {
          "name": "account",
          "type": "address"
        }
      ],
      "name": "isCertifier",
      "outputs": [
        {
          "name": "",
          "type": "bool"
        }
      ],
      "payable": false,
      "stateMutability": "view",
      "type": "function",
      "signature": "0x1c2353e1"
    },
    {
      "constant": false,
      "inputs": [
        {
          "name": "account",
          "type": "address"
        }
      ],
      "name": "addCertifier",
      "outputs": [],
      "payable": false,
      "stateMutability": "nonpayable",
      "type": "function",
      "signature": "0x2b198366"
    },
    {
      "constant": false,
      "inputs": [],
      "name": "kill",
      "outputs": [],
      "payable": false,
      "stateMutability": "nonpayable",
      "type": "function",
      "signature": "0x41c0e1b5"
    },
    {
      "constant": true,
      "inputs": [
        {
          "name": "account",
          "type": "address"
        }
      ],
      "name": "isRetailer",
      "outputs": [
        {
          "name": "",
          "type": "bool"
        }
      ],
      "payable": false,
      "stateMutability": "view",
      "type": "function",
      "signature": "0x5da09b88"
    },
    {
      "constant": false,
      "inputs": [],
      "name": "renounceConsumer",
      "outputs": [],
      "payable": false,
      "stateMutability": "nonpayable",
      "type": "function",
      "signature": "0x61e6982d"
    },
    {
      "constant": false,
      "inputs": [],
      "name": "renounceDistributor",
      "outputs": [],
      "payable": false,
      "stateMutability": "nonpayable",
      "type": "function",
      "signature": "0x644241db"
    },
    {
      "constant": false,
      "inputs": [],
      "name": "renounceOwnership",
      "outputs": [],
      "payable": false,
      "stateMutability": "nonpayable",
      "type": "function",
      "signature": "0x715018a6"
    },
    {
      "constant": false,
      "inputs": [
        {
          "name": "account",
          "type": "address"
        }
      ],
      "name": "addDistributor",
      "outputs": [],
      "payable": false,
      "stateMutability": "nonpayable",
      "type": "function",
      "signature": "0x7250e224"
    },
    {
      "constant": true,
      "inputs": [
        {
          "name": "account",
          "type": "address"
        }
      ],
      "name": "isConsumer",
      "outputs": [
        {
          "name": "",
          "type": "bool"
        }
      ],
      "payable": false,
      "stateMutability": "view",
      "type": "function",
      "signature": "0x834ff739"
    },
    {
      "constant": true,
      "inputs": [],
      "name": "owner",
      "outputs": [
        {
          "name": "",
          "type": "address"
        }
      ],
      "payable": false,
      "stateMutability": "view",
      "type": "function",
      "signature": "0x8da5cb5b"
    },
    {
      "constant": false,
      "inputs": [
        {
          "name": "account",
          "type": "address"
        }
      ],
      "name": "addRetailer",
      "outputs": [],
      "payable": false,
      "stateMutability": "nonpayable",
      "type": "function",
      "signature": "0x8ec4f505"
    },
    {
      "constant": true,
      "inputs": [
        {
          "name": "account",
          "type": "address"
        }
      ],
      "name": "isDistributor",
      "outputs": [
        {
          "name": "",
          "type": "bool"
        }
      ],
      "payable": false,
      "stateMutability": "view",
      "type": "function",
      "signature": "0x8f0c86fa"
    },
    {
      "constant": true,
      "inputs": [],
      "name": "isOwner",
      "outputs": [
        {
          "name": "",
          "type": "bool"
        }
      ],
      "payable": false,
      "stateMutability": "view",
      "type": "function",
      "signature": "0x8f32d59b"
    },
    {
      "constant": false,
      "inputs": [],
      "name": "renounceCertifier",
      "outputs": [],
      "payable": false,
      "stateMutability": "nonpayable",
      "type": "function",
      "signature": "0xc9cb2d04"
    },
    {
      "constant": false,
      "inputs": [],
      "name": "renounceRetailer",
      "outputs": [],
      "payable": false,
      "stateMutability": "nonpayable",
      "type": "function",
      "signature": "0xdb0e6a2f"
    },
    {
      "constant": false,
      "inputs": [
        {
          "name": "account",
          "type": "address"
        }
      ],
      "name": "addProducer",
      "outputs": [],
      "payable": false,
      "stateMutability": "nonpayable",
      "type": "function",
      "signature": "0xddf80166"
    },
    {
      "constant": false,
      "inputs": [
        {
          "name": "newOwner",
          "type": "address"
        }
      ],
      "name": "transferOwnership",
      "outputs": [],
      "payable": false,
      "stateMutability": "nonpayable",
      "type": "function",
      "signature": "0xf2fde38b"
    },
    {
      "constant": true,
      "inputs": [
        {
          "name": "account",
          "type": "address"
        }
      ],
      "name": "isProducer",
      "outputs": [
        {
          "name": "",
          "type": "bool"
        }
      ],
      "payable": false,
      "stateMutability": "view",
      "type": "function",
      "signature": "0xf5521022"
    },
    {
      "constant": false,
      "inputs": [],
      "name": "renounceProducer",
      "outputs": [],
      "payable": false,
      "stateMutability": "nonpayable",
      "type": "function",
      "signature": "0xf9b867d8"
    },
    {
      "inputs": [],
      "payable": true,
      "stateMutability": "payable",
      "type": "constructor",
      "signature": "constructor"
    },
    {
      "anonymous": false,
      "inputs": [
        {
          "indexed": true,
          "name": "upc",
          "type": "uint256"
        },
        {
          "indexed": false,
          "name": "grapeType",
          "type": "string"
        },
        {
          "indexed": false,
          "name": "harvestDate",
          "type": "uint256"
        }
      ],
      "name": "GrapesHarvested",
      "type": "event",
      "signature": "0x9ccae00fd2be9395c2d9b26bfdda16afd213ccc4a998d7f99267d209ab7c2cc3"
    },
    {
      "anonymous": false,
      "inputs": [
        {
          "indexed": true,
          "name": "upc",
          "type": "uint256"
        }
      ],
      "name": "GrapesProcessed",
      "type": "event",
      "signature": "0x38b3ccf5c71716a234d8237d1ae8c68d7f83ec5b335a0370fe48e6d8d327fde2"
    },
    {
      "anonymous": false,
      "inputs": [
        {
          "indexed": true,
          "name": "upc",
          "type": "uint256"
        },
        {
          "indexed": false,
          "name": "wineLotID",
          "type": "uint256"
        },
        {
          "indexed": false,
          "name": "fermentationTankID",
          "type": "uint256"
        }
      ],
      "name": "WineProduced",
      "type": "event",
      "signature": "0xca9ce9c106ba5e7b582e028d80530d52e9a4b23abdcd46b510041614247a0b68"
    },
    {
      "anonymous": false,
      "inputs": [
        {
          "indexed": true,
          "name": "upc",
          "type": "uint256"
        },
        {
          "indexed": false,
          "name": "barrelID",
          "type": "uint256"
        },
        {
          "indexed": false,
          "name": "numDaysAging",
          "type": "uint256"
        }
      ],
      "name": "WineAged",
      "type": "event",
      "signature": "0xad5370f930a165bd63e04aa036b89fab01be560c5ac6b138e220ae94f776d4d2"
    },
    {
      "anonymous": false,
      "inputs": [
        {
          "indexed": true,
          "name": "upc",
          "type": "uint256"
        },
        {
          "indexed": false,
          "name": "bottlingDate",
          "type": "uint256"
        },
        {
          "indexed": false,
          "name": "numBottlesLot",
          "type": "uint256"
        }
      ],
      "name": "WineBottled",
      "type": "event",
      "signature": "0x62f891a6878eeed87134f828e39893ff59a336461396c6621878d31d82bdde8d"
    },
    {
      "anonymous": false,
      "inputs": [
        {
          "indexed": true,
          "name": "upc",
          "type": "uint256"
        },
        {
          "indexed": false,
          "name": "numDaysResting",
          "type": "uint256"
        }
      ],
      "name": "WineRested",
      "type": "event",
      "signature": "0x82b54792e48b2a4bcca8f5d8e701d4f763ddf743ae21219e32d5e9792615e012"
    },
    {
      "anonymous": false,
      "inputs": [
        {
          "indexed": true,
          "name": "upc",
          "type": "uint256"
        },
        {
          "indexed": false,
          "name": "wineLabel",
          "type": "string"
        },
        {
          "indexed": false,
          "name": "certification",
          "type": "string"
        }
      ],
      "name": "WineLabeled",
      "type": "event",
      "signature": "0x3977d140d49919c283df5ec8f9cfa04024931c4aaa44212b402c9a6f56a38e6c"
    },
    {
      "anonymous": false,
      "inputs": [
        {
          "indexed": true,
          "name": "upc",
          "type": "uint256"
        }
      ],
      "name": "WinePacked",
      "type": "event",
      "signature": "0x0869ab0322800b441c2ace7097217dfee49f6c8129437dd36e5e4146e0e69928"
    },
    {
      "anonymous": false,
      "inputs": [
        {
          "indexed": true,
          "name": "upc",
          "type": "uint256"
        },
        {
          "indexed": false,
          "name": "price",
          "type": "uint256"
        }
      ],
      "name": "WineForSale",
      "type": "event",
      "signature": "0xc2d347ecd36fc3f30bbabfe4f4a1d757006389de40b57f90127581f0dc263f46"
    },
    {
      "anonymous": false,
      "inputs": [
        {
          "indexed": true,
          "name": "upc",
          "type": "uint256"
        }
      ],
      "name": "WineSold",
      "type": "event",
      "signature": "0xc4e50a10ecdbba8d26cab330220ec6f89afc954c92251c4e529542119b85c084"
    },
    {
      "anonymous": false,
      "inputs": [
        {
          "indexed": true,
          "name": "upc",
          "type": "uint256"
        }
      ],
      "name": "WineShipped",
      "type": "event",
      "signature": "0xc45d1150d9c75df34f991dd286a910d790ce07ba5af619b7f7d37139c3c2cafc"
    },
    {
      "anonymous": false,
      "inputs": [
        {
          "indexed": true,
          "name": "upc",
          "type": "uint256"
        }
      ],
      "name": "WineReceived",
      "type": "event",
      "signature": "0x14b6cc590b47a9656821bdb6db91b9e1537ca4d36ff65f265a661c8e13bfd098"
    },
    {
      "anonymous": false,
      "inputs": [
        {
          "indexed": true,
          "name": "upc",
          "type": "uint256"
        }
      ],
      "name": "WinePurchased",
      "type": "event",
      "signature": "0x0513f8569d804d90dd149e0e50db1c075f672ccfbb4ccabe023ff332ffa2196c"
    },
    {
      "anonymous": false,
      "inputs": [
        {
          "indexed": true,
          "name": "account",
          "type": "address"
        }
      ],
      "name": "ProducerAdded",
      "type": "event",
      "signature": "0x2977383b0207d39ef14220620b6cf3e6c9b6e78592af90baeef6614ed2fcd2c6"
    },
    {
      "anonymous": false,
      "inputs": [
        {
          "indexed": true,
          "name": "account",
          "type": "address"
        }
      ],
      "name": "ProducerRemoved",
      "type": "event",
      "signature": "0xb78e9906c5bae930ccf756a5214c9855b1782f0eb30f9566de2384f034af48f3"
    },
    {
      "anonymous": false,
      "inputs": [
        {
          "indexed": true,
          "name": "account",
          "type": "address"
        }
      ],
      "name": "CertifierAdded",
      "type": "event",
      "signature": "0x9e685b594e54f370ef91382c0da443292b1378dec458f2a0d0009e7451547dab"
    },
    {
      "anonymous": false,
      "inputs": [
        {
          "indexed": true,
          "name": "account",
          "type": "address"
        }
      ],
      "name": "CertifierRemoved",
      "type": "event",
      "signature": "0x45cee538c02c2ddcdfc31b5b9ab913c23f938f81483c880884d94694b2985a33"
    },
    {
      "anonymous": false,
      "inputs": [
        {
          "indexed": true,
          "name": "account",
          "type": "address"
        }
      ],
      "name": "ConsumerAdded",
      "type": "event",
      "signature": "0x28b26e7a3d20aedbc5f8f2ebf7da671c0491723a2b78f47a097b0e46dee07142"
    },
    {
      "anonymous": false,
      "inputs": [
        {
          "indexed": true,
          "name": "account",
          "type": "address"
        }
      ],
      "name": "ConsumerRemoved",
      "type": "event",
      "signature": "0xe3f5ed5f263f1f01764a96edfc7d025f511ec5f7d180e8816908b78bcf74f098"
    },
    {
      "anonymous": false,
      "inputs": [
        {
          "indexed": true,
          "name": "account",
          "type": "address"
        }
      ],
      "name": "DistributorAdded",
      "type": "event",
      "signature": "0xddbf200aa634dc3fb81cfd68583dd1040d1c751d335e1d86b631bde3e977fea8"
    },
    {
      "anonymous": false,
      "inputs": [
        {
          "indexed": true,
          "name": "account",
          "type": "address"
        }
      ],
      "name": "DistributorRemoved",
      "type": "event",
      "signature": "0x126174f6cf49c81cdb4a9214c6b8f037bef55b4ec31e4fc776cea2a1c8a88d59"
    },
    {
      "anonymous": false,
      "inputs": [
        {
          "indexed": true,
          "name": "account",
          "type": "address"
        }
      ],
      "name": "RetailerAdded",
      "type": "event",
      "signature": "0x71ae26cad02663e3d92efd6ec56031a80d74a20c0ab4183faa8bf262261c9baa"
    },
    {
      "anonymous": false,
      "inputs": [
        {
          "indexed": true,
          "name": "account",
          "type": "address"
        }
      ],
      "name": "RetailerRemoved",
      "type": "event",
      "signature": "0xdb7176e79cffef81cb01767dd0447a0b24bb72ca9778d4b245581086b2a7e6db"
    },
    {
      "anonymous": false,
      "inputs": [
        {
          "indexed": true,
          "name": "account",
          "type": "address"
        },
        {
          "indexed": false,
          "name": "result",
          "type": "bool"
        }
      ],
      "name": "ProducerToBeConfirmed",
      "type": "event",
      "signature": "0x29481922219aff550c5bd24116b1a07b987b621b10fb266170cd85f2d3688c38"
    },
    {
      "anonymous": false,
      "inputs": [
        {
          "indexed": true,
          "name": "previousOwner",
          "type": "address"
        },
        {
          "indexed": true,
          "name": "newOwner",
          "type": "address"
        }
      ],
      "name": "OwnershipTransferred",
      "type": "event",
      "signature": "0x8be0079c531659141344cd1fd0a4f28419497f9722a3daafe3b4186f6b6457e0"
    },
    {
      "constant": false,
      "inputs": [
        {
          "name": "_upc",
          "type": "uint256"
        },
        {
          "name": "_originProducerName",
          "type": "string"
        },
        {
          "name": "_originProducerInformation",
          "type": "string"
        },
        {
          "name": "_originFarmLatitude",
          "type": "string"
        },
        {
          "name": "_originFarmLongitude",
          "type": "string"
        },
        {
          "name": "_grapeType",
          "type": "string"
        },
        {
          "name": "_harvestDate",
          "type": "uint256"
        },
        {
          "name": "_harvestNotes",
          "type": "string"
        }
      ],
      "name": "harvestGrapes",
      "outputs": [],
      "payable": false,
      "stateMutability": "nonpayable",
      "type": "function",
      "signature": "0x9df2dc06"
    },
    {
      "constant": false,
      "inputs": [
        {
          "name": "_upc",
          "type": "uint256"
        }
      ],
      "name": "processGrapes",
      "outputs": [],
      "payable": false,
      "stateMutability": "nonpayable",
      "type": "function",
      "signature": "0xb85d1361"
    },
    {
      "constant": false,
      "inputs": [
        {
          "name": "_upc",
          "type": "uint256"
        },
        {
          "name": "_wineLotID",
          "type": "uint256"
        },
        {
          "name": "_fermentationTankID",
          "type": "uint256"
        }
      ],
      "name": "produceWine",
      "outputs": [],
      "payable": false,
      "stateMutability": "nonpayable",
      "type": "function",
      "signature": "0xd6291d15"
    },
    {
      "constant": false,
      "inputs": [
        {
          "name": "_upc",
          "type": "uint256"
        },
        {
          "name": "_barrelID",
          "type": "uint256"
        },
        {
          "name": "_numDaysAging",
          "type": "uint256"
        }
      ],
      "name": "ageWine",
      "outputs": [],
      "payable": false,
      "stateMutability": "nonpayable",
      "type": "function",
      "signature": "0x5eaf4393"
    },
    {
      "constant": false,
      "inputs": [
        {
          "name": "_upc",
          "type": "uint256"
        },
        {
          "name": "_bottlingDate",
          "type": "uint256"
        },
        {
          "name": "_numBottlesLot",
          "type": "uint256"
        }
      ],
      "name": "bottleUpWine",
      "outputs": [],
      "payable": false,
      "stateMutability": "nonpayable",
      "type": "function",
      "signature": "0x54fd345c"
    },
    {
      "constant": false,
      "inputs": [
        {
          "name": "_upc",
          "type": "uint256"
        },
        {
          "name": "_numDaysResting",
          "type": "uint256"
        }
      ],
      "name": "restWine",
      "outputs": [],
      "payable": false,
      "stateMutability": "nonpayable",
      "type": "function",
      "signature": "0xf4d9640c"
    },
    {
      "constant": false,
      "inputs": [
        {
          "name": "_producer",
          "type": "address"
        },
        {
          "name": "_wineLabel",
          "type": "string"
        },
        {
          "name": "_certification",
          "type": "string"
        }
      ],
      "name": "certifyProducer",
      "outputs": [],
      "payable": false,
      "stateMutability": "nonpayable",
      "type": "function",
      "signature": "0x7dcd9a3e"
    },
    {
      "constant": false,
      "inputs": [
        {
          "name": "_upc",
          "type": "uint256"
        },
        {
          "name": "_wineLabel",
          "type": "string"
        },
        {
          "name": "_wineInformation",
          "type": "string"
        }
      ],
      "name": "labelWine",
      "outputs": [],
      "payable": false,
      "stateMutability": "nonpayable",
      "type": "function",
      "signature": "0xf51a84d0"
    },
    {
      "constant": false,
      "inputs": [
        {
          "name": "_upc",
          "type": "uint256"
        }
      ],
      "name": "packWine",
      "outputs": [],
      "payable": false,
      "stateMutability": "nonpayable",
      "type": "function",
      "signature": "0x7b97bb34"
    },
    {
      "constant": false,
      "inputs": [
        {
          "name": "_upc",
          "type": "uint256"
        },
        {
          "name": "_price",
          "type": "uint256"
        },
        {
          "name": "_imageHash",
          "type": "string"
        }
      ],
      "name": "sellWine",
      "outputs": [],
      "payable": false,
      "stateMutability": "nonpayable",
      "type": "function",
      "signature": "0x43fca216"
    },
    {
      "constant": false,
      "inputs": [
        {
          "name": "_upc",
          "type": "uint256"
        }
      ],
      "name": "buyWine",
      "outputs": [],
      "payable": true,
      "stateMutability": "payable",
      "type": "function",
      "signature": "0xcbcf2349"
    },
    {
      "constant": false,
      "inputs": [
        {
          "name": "_upc",
          "type": "uint256"
        }
      ],
      "name": "shipWine",
      "outputs": [],
      "payable": false,
      "stateMutability": "nonpayable",
      "type": "function",
      "signature": "0x26820e7e"
    },
    {
      "constant": false,
      "inputs": [
        {
          "name": "_upc",
          "type": "uint256"
        }
      ],
      "name": "receiveWine",
      "outputs": [],
      "payable": false,
      "stateMutability": "nonpayable",
      "type": "function",
      "signature": "0xd1e74044"
    },
    {
      "constant": false,
      "inputs": [
        {
          "name": "_upc",
          "type": "uint256"
        }
      ],
      "name": "purchaseWine",
      "outputs": [],
      "payable": false,
      "stateMutability": "nonpayable",
      "type": "function",
      "signature": "0x04fee1eb"
    },
    {
      "constant": true,
      "inputs": [
        {
          "name": "_upc",
          "type": "uint256"
        }
      ],
      "name": "fetchItemBufferOne",
      "outputs": [
        {
          "name": "itemSKU",
          "type": "uint256"
        },
        {
          "name": "itemUPC",
          "type": "uint256"
        },
        {
          "name": "ownerID",
          "type": "address"
        },
        {
          "name": "itemState",
          "type": "uint256"
        },
        {
          "name": "originProducerID",
          "type": "address"
        },
        {
          "name": "originProducerName",
          "type": "string"
        },
        {
          "name": "originProducerInformation",
          "type": "string"
        },
        {
          "name": "originFarmLatitude",
          "type": "string"
        },
        {
          "name": "originFarmLongitude",
          "type": "string"
        },
        {
          "name": "grapeType",
          "type": "string"
        }
      ],
      "payable": false,
      "stateMutability": "view",
      "type": "function",
      "signature": "0x77c45913"
    },
    {
      "constant": true,
      "inputs": [
        {
          "name": "_upc",
          "type": "uint256"
        }
      ],
      "name": "fetchItemBufferTwo",
      "outputs": [
        {
          "name": "itemUPC",
          "type": "uint256"
        },
        {
          "name": "harvestDate",
          "type": "uint256"
        },
        {
          "name": "harvestNotes",
          "type": "string"
        },
        {
          "name": "wineLotID",
          "type": "uint256"
        },
        {
          "name": "fermentationTankID",
          "type": "uint256"
        },
        {
          "name": "barrelID",
          "type": "uint256"
        },
        {
          "name": "numDaysAging",
          "type": "uint256"
        },
        {
          "name": "bottlingDate",
          "type": "uint256"
        },
        {
          "name": "numBottlesLot",
          "type": "uint256"
        },
        {
          "name": "numDaysResting",
          "type": "uint256"
        }
      ],
      "payable": false,
      "stateMutability": "view",
      "type": "function",
      "signature": "0x66225ff9"
    },
    {
      "constant": true,
      "inputs": [
        {
          "name": "_upc",
          "type": "uint256"
        }
      ],
      "name": "fetchItemBufferThree",
      "outputs": [
        {
          "name": "itemUPC",
          "type": "uint256"
        },
        {
          "name": "wineLabel",
          "type": "string"
        },
        {
          "name": "wineInformation",
          "type": "string"
        },
        {
          "name": "certification",
          "type": "string"
        },
        {
          "name": "certifierID",
          "type": "address"
        },
        {
          "name": "price",
          "type": "uint256"
        },
        {
          "name": "imageHash",
          "type": "string"
        },
        {
          "name": "distributorID",
          "type": "address"
        },
        {
          "name": "retailerID",
          "type": "address"
        },
        {
          "name": "consumerID",
          "type": "address"
        }
      ],
      "payable": false,
      "stateMutability": "view",
      "type": "function",
      "signature": "0xacd5fba6"
    },
    {
      "constant": false,
      "inputs": [
        {
          "name": "_upc",
          "type": "uint256"
        },
        {
          "name": "_txHash",
          "type": "string"
        }
      ],
      "name": "updateItemHistory",
      "outputs": [],
      "payable": false,
      "stateMutability": "nonpayable",
      "type": "function",
      "signature": "0xee59f94e"
    }
  ],
  "bytecode": "0x6080604052336000806101000a81548173ffffffffffffffffffffffffffffffffffffffff021916908373ffffffffffffffffffffffffffffffffffffffff1602179055506000809054906101000a900473ffffffffffffffffffffffffffffffffffffffff1673ffffffffffffffffffffffffffffffffffffffff16600073ffffffffffffffffffffffffffffffffffffffff167f8be0079c531659141344cd1fd0a4f28419497f9722a3daafe3b4186f6b6457e060405160405180910390a3620000da3362000172640100000000026401000000009004565b620000f433620001dc640100000000026401000000009004565b6200010e3362000246640100000000026401000000009004565b6200012833620002b0640100000000026401000000009004565b62000142336200031a640100000000026401000000009004565b6200015c3362000384640100000000026401000000009004565b6001600781905550600160068190555062000670565b6200019681600162000403640100000000026200464a179091906401000000009004565b8073ffffffffffffffffffffffffffffffffffffffff167f2977383b0207d39ef14220620b6cf3e6c9b6e78592af90baeef6614ed2fcd2c660405160405180910390a250565b6200020081600262000403640100000000026200464a179091906401000000009004565b8073ffffffffffffffffffffffffffffffffffffffff167f9e685b594e54f370ef91382c0da443292b1378dec458f2a0d0009e7451547dab60405160405180910390a250565b6200026a81600462000403640100000000026200464a179091906401000000009004565b8073ffffffffffffffffffffffffffffffffffffffff167fddbf200aa634dc3fb81cfd68583dd1040d1c751d335e1d86b631bde3e977fea860405160405180910390a250565b620002d481600562000403640100000000026200464a179091906401000000009004565b8073ffffffffffffffffffffffffffffffffffffffff167f71ae26cad02663e3d92efd6ec56031a80d74a20c0ab4183faa8bf262261c9baa60405160405180910390a250565b6200033e81600362000403640100000000026200464a179091906401000000009004565b8073ffffffffffffffffffffffffffffffffffffffff167f28b26e7a3d20aedbc5f8f2ebf7da671c0491723a2b78f47a097b0e46dee0714260405160405180910390a250565b6200039d620004c6640100000000026401000000009004565b1515620003a957600080fd5b600073ffffffffffffffffffffffffffffffffffffffff168173ffffffffffffffffffffffffffffffffffffffff1614151515620003e657600080fd5b62000400816200051d640100000000026401000000009004565b50565b600073ffffffffffffffffffffffffffffffffffffffff168173ffffffffffffffffffffffffffffffffffffffff16141515156200044057600080fd5b6200045b8282620005db640100000000026401000000009004565b1515156200046857600080fd5b60018260000160008373ffffffffffffffffffffffffffffffffffffffff1673ffffffffffffffffffffffffffffffffffffffff16815260200190815260200160002060006101000a81548160ff0219169083151502179055505050565b60008060009054906101000a900473ffffffffffffffffffffffffffffffffffffffff1673ffffffffffffffffffffffffffffffffffffffff163373ffffffffffffffffffffffffffffffffffffffff1614905090565b8073ffffffffffffffffffffffffffffffffffffffff166000809054906101000a900473ffffffffffffffffffffffffffffffffffffffff1673ffffffffffffffffffffffffffffffffffffffff167f8be0079c531659141344cd1fd0a4f28419497f9722a3daafe3b4186f6b6457e060405160405180910390a3806000806101000a81548173ffffffffffffffffffffffffffffffffffffffff021916908373ffffffffffffffffffffffffffffffffffffffff16021790555050565b60008073ffffffffffffffffffffffffffffffffffffffff168273ffffffffffffffffffffffffffffffffffffffff16141515156200061957600080fd5b8260000160008373ffffffffffffffffffffffffffffffffffffffff1673ffffffffffffffffffffffffffffffffffffffff16815260200190815260200160002060009054906101000a900460ff16905092915050565b61498180620006806000396000f3fe6080604052600436106101d8576000357c0100000000000000000000000000000000000000000000000000000000900463ffffffff16806304fee1eb146101dd578063112940f9146102185780631c2353e11461026957806326820e7e146102d25780632b1983661461030d57806341c0e1b51461035e57806343fca2161461037557806354fd345c146104515780635da09b88146104a05780635eaf43931461050957806361e6982d14610558578063644241db1461056f57806366225ff914610586578063715018a6146106795780637250e2241461069057806377c45913146106e15780637b97bb34146109c05780637dcd9a3e146109fb578063834ff73914610b7a5780638da5cb5b14610be35780638ec4f50514610c3a5780638f0c86fa14610c8b5780638f32d59b14610cf45780639df2dc0614610d23578063acd5fba6146110f3578063b85d1361146113c5578063c9cb2d0414611400578063cbcf234914611417578063d1e7404414611445578063d6291d1514611480578063db0e6a2f146114cf578063ddf80166146114e6578063ee59f94e14611537578063f2fde38b14611609578063f4d9640c1461165a578063f51a84d01461169f578063f552102214611808578063f9b867d814611871575b600080fd5b3480156101e957600080fd5b506102166004803603602081101561020057600080fd5b8101908080359060200190929190505050611888565b005b34801561022457600080fd5b506102676004803603602081101561023b57600080fd5b81019080803573ffffffffffffffffffffffffffffffffffffffff1690602001909291905050506119f8565b005b34801561027557600080fd5b506102b86004803603602081101561028c57600080fd5b81019080803573ffffffffffffffffffffffffffffffffffffffff169060200190929190505050611a18565b604051808215151515815260200191505060405180910390f35b3480156102de57600080fd5b5061030b600480360360208110156102f557600080fd5b8101908080359060200190929190505050611a35565b005b34801561031957600080fd5b5061035c6004803603602081101561033057600080fd5b81019080803573ffffffffffffffffffffffffffffffffffffffff169060200190929190505050611b59565b005b34801561036a57600080fd5b50610373611b78565b005b34801561038157600080fd5b5061044f6004803603606081101561039857600080fd5b810190808035906020019092919080359060200190929190803590602001906401000000008111156103c957600080fd5b8201836020820111156103db57600080fd5b803590602001918460018302840111640100000000831117156103fd57600080fd5b91908080601f016020809104026020016040519081016040528093929190818152602001838380828437600081840152601f19601f820116905080830192505050505050509192919290505050611bab565b005b34801561045d57600080fd5b5061049e6004803603606081101561047457600080fd5b81019080803590602001909291908035906020019092919080359060200190929190505050611d21565b005b3480156104ac57600080fd5b506104ef600480360360208110156104c357600080fd5b81019080803573ffffffffffffffffffffffffffffffffffffffff169060200190929190505050611e90565b604051808215151515815260200191505060405180910390f35b34801561051557600080fd5b506105566004803603606081101561052c57600080fd5b81019080803590602001909291908035906020019092919080359060200190929190505050611ead565b005b34801561056457600080fd5b5061056d61201c565b005b34801561057b57600080fd5b50610584612027565b005b34801561059257600080fd5b506105bf600480360360208110156105a957600080fd5b8101908080359060200190929190505050612032565b604051808b81526020018a81526020018060200189815260200188815260200187815260200186815260200185815260200184815260200183815260200182810382528a818151815260200191508051906020019080838360005b8381101561063557808201518184015260208101905061061a565b50505050905090810190601f1680156106625780820380516001836020036101000a031916815260200191505b509b50505050505050505050505060405180910390f35b34801561068557600080fd5b5061068e612147565b005b34801561069c57600080fd5b506106df600480360360208110156106b357600080fd5b81019080803573ffffffffffffffffffffffffffffffffffffffff169060200190929190505050612166565b005b3480156106ed57600080fd5b5061071a6004803603602081101561070457600080fd5b8101908080359060200190929190505050612186565b604051808b81526020018a81526020018973ffffffffffffffffffffffffffffffffffffffff1673ffffffffffffffffffffffffffffffffffffffff1681526020018881526020018773ffffffffffffffffffffffffffffffffffffffff1673ffffffffffffffffffffffffffffffffffffffff168152602001806020018060200180602001806020018060200186810386528b818151815260200191508051906020019080838360005b838110156107e05780820151818401526020810190506107c5565b50505050905090810190601f16801561080d5780820380516001836020036101000a031916815260200191505b5086810385528a818151815260200191508051906020019080838360005b8381101561084657808201518184015260208101905061082b565b50505050905090810190601f1680156108735780820380516001836020036101000a031916815260200191505b50868103845289818151815260200191508051906020019080838360005b838110156108ac578082015181840152602081019050610891565b50505050905090810190601f1680156108d95780820380516001836020036101000a031916815260200191505b50868103835288818151815260200191508051906020019080838360005b838110156109125780820151818401526020810190506108f7565b50505050905090810190601f16801561093f5780820380516001836020036101000a031916815260200191505b50868103825287818151815260200191508051906020019080838360005b8381101561097857808201518184015260208101905061095d565b50505050905090810190601f1680156109a55780820380516001836020036101000a031916815260200191505b509f5050505050505050505050505050505060405180910390f35b3480156109cc57600080fd5b506109f9600480360360208110156109e357600080fd5b8101908080359060200190929190505050612563565b005b348015610a0757600080fd5b50610b7860048036036060811015610a1e57600080fd5b81019080803573ffffffffffffffffffffffffffffffffffffffff16906020019092919080359060200190640100000000811115610a5b57600080fd5b820183602082011115610a6d57600080fd5b80359060200191846001830284011164010000000083111715610a8f57600080fd5b91908080601f016020809104026020016040519081016040528093929190818152602001838380828437600081840152601f19601f82011690508083019250505050505050919291929080359060200190640100000000811115610af257600080fd5b820183602082011115610b0457600080fd5b80359060200191846001830284011164010000000083111715610b2657600080fd5b91908080601f016020809104026020016040519081016040528093929190818152602001838380828437600081840152601f19601f820116905080830192505050505050509192919290505050612687565b005b348015610b8657600080fd5b50610bc960048036036020811015610b9d57600080fd5b81019080803573ffffffffffffffffffffffffffffffffffffffff1690602001909291905050506127da565b604051808215151515815260200191505060405180910390f35b348015610bef57600080fd5b50610bf86127f7565b604051808273ffffffffffffffffffffffffffffffffffffffff1673ffffffffffffffffffffffffffffffffffffffff16815260200191505060405180910390f35b348015610c4657600080fd5b50610c8960048036036020811015610c5d57600080fd5b81019080803573ffffffffffffffffffffffffffffffffffffffff169060200190929190505050612820565b005b348015610c9757600080fd5b50610cda60048036036020811015610cae57600080fd5b81019080803573ffffffffffffffffffffffffffffffffffffffff169060200190929190505050612840565b604051808215151515815260200191505060405180910390f35b348015610d0057600080fd5b50610d0961285d565b604051808215151515815260200191505060405180910390f35b348015610d2f57600080fd5b506110f16004803603610100811015610d4757600080fd5b810190808035906020019092919080359060200190640100000000811115610d6e57600080fd5b820183602082011115610d8057600080fd5b80359060200191846001830284011164010000000083111715610da257600080fd5b91908080601f016020809104026020016040519081016040528093929190818152602001838380828437600081840152601f19601f82011690508083019250505050505050919291929080359060200190640100000000811115610e0557600080fd5b820183602082011115610e1757600080fd5b80359060200191846001830284011164010000000083111715610e3957600080fd5b91908080601f016020809104026020016040519081016040528093929190818152602001838380828437600081840152601f19601f82011690508083019250505050505050919291929080359060200190640100000000811115610e9c57600080fd5b820183602082011115610eae57600080fd5b80359060200191846001830284011164010000000083111715610ed057600080fd5b91908080601f016020809104026020016040519081016040528093929190818152602001838380828437600081840152601f19601f82011690508083019250505050505050919291929080359060200190640100000000811115610f3357600080fd5b820183602082011115610f4557600080fd5b80359060200191846001830284011164010000000083111715610f6757600080fd5b91908080601f016020809104026020016040519081016040528093929190818152602001838380828437600081840152601f19601f82011690508083019250505050505050919291929080359060200190640100000000811115610fca57600080fd5b820183602082011115610fdc57600080fd5b80359060200191846001830284011164010000000083111715610ffe57600080fd5b91908080601f016020809104026020016040519081016040528093929190818152602001838380828437600081840152601f19601f820116905080830192505050505050509192919290803590602001909291908035906020019064010000000081111561106b57600080fd5b82018360208201111561107d57600080fd5b8035906020019184600183028401116401000000008311171561109f57600080fd5b91908080601f016020809104026020016040519081016040528093929190818152602001838380828437600081840152601f19601f8201169050808301925050505050505091929192905050506128b4565b005b3480156110ff57600080fd5b5061112c6004803603602081101561111657600080fd5b8101908080359060200190929190505050612f31565b604051808b81526020018060200180602001806020018a73ffffffffffffffffffffffffffffffffffffffff1673ffffffffffffffffffffffffffffffffffffffff168152602001898152602001806020018873ffffffffffffffffffffffffffffffffffffffff1673ffffffffffffffffffffffffffffffffffffffff1681526020018773ffffffffffffffffffffffffffffffffffffffff1673ffffffffffffffffffffffffffffffffffffffff1681526020018673ffffffffffffffffffffffffffffffffffffffff1673ffffffffffffffffffffffffffffffffffffffff16815260200185810385528e818151815260200191508051906020019080838360005b8381101561124c578082015181840152602081019050611231565b50505050905090810190601f1680156112795780820380516001836020036101000a031916815260200191505b5085810384528d818151815260200191508051906020019080838360005b838110156112b2578082015181840152602081019050611297565b50505050905090810190601f1680156112df5780820380516001836020036101000a031916815260200191505b5085810383528c818151815260200191508051906020019080838360005b838110156113185780820151818401526020810190506112fd565b50505050905090810190601f1680156113455780820380516001836020036101000a031916815260200191505b50858103825289818151815260200191508051906020019080838360005b8381101561137e578082015181840152602081019050611363565b50505050905090810190601f1680156113ab5780820380516001836020036101000a031916815260200191505b509e50505050505050505050505050505060405180910390f35b3480156113d157600080fd5b506113fe600480360360208110156113e857600080fd5b81019080803590602001909291905050506132a4565b005b34801561140c57600080fd5b506114156133c8565b005b6114436004803603602081101561142d57600080fd5b81019080803590602001909291905050506133d3565b005b34801561145157600080fd5b5061147e6004803603602081101561146857600080fd5b81019080803590602001909291905050506136d9565b005b34801561148c57600080fd5b506114cd600480360360608110156114a357600080fd5b81019080803590602001909291908035906020019092919080359060200190929190505050613849565b005b3480156114db57600080fd5b506114e46139b8565b005b3480156114f257600080fd5b506115356004803603602081101561150957600080fd5b81019080803573ffffffffffffffffffffffffffffffffffffffff1690602001909291905050506139c3565b005b34801561154357600080fd5b506116076004803603604081101561155a57600080fd5b81019080803590602001909291908035906020019064010000000081111561158157600080fd5b82018360208201111561159357600080fd5b803590602001918460018302840111640100000000831117156115b557600080fd5b91908080601f016020809104026020016040519081016040528093929190818152602001838380828437600081840152601f19601f8201169050808301925050505050505091929192905050506139e2565b005b34801561161557600080fd5b506116586004803603602081101561162c57600080fd5b81019080803573ffffffffffffffffffffffffffffffffffffffff169060200190929190505050613a49565b005b34801561166657600080fd5b5061169d6004803603604081101561167d57600080fd5b810190808035906020019092919080359060200190929190505050613aa4565b005b3480156116ab57600080fd5b50611806600480360360608110156116c257600080fd5b8101908080359060200190929190803590602001906401000000008111156116e957600080fd5b8201836020820111156116fb57600080fd5b8035906020019184600183028401116401000000008311171561171d57600080fd5b91908080601f016020809104026020016040519081016040528093929190818152602001838380828437600081840152601f19601f8201169050808301925050505050505091929192908035906020019064010000000081111561178057600080fd5b82018360208201111561179257600080fd5b803590602001918460018302840111640100000000831117156117b457600080fd5b91908080601f016020809104026020016040519081016040528093929190818152602001838380828437600081840152601f19601f820116905080830192505050505050509192919290505050613bef565b005b34801561181457600080fd5b506118576004803603602081101561182b57600080fd5b81019080803573ffffffffffffffffffffffffffffffffffffffff16906020019092919050505061414c565b604051808215151515815260200191505060405180910390f35b34801561187d57600080fd5b50611886614169565b005b80600b600c81111561189657fe5b6008600083815260200190815260200160002060020160149054906101000a900460ff16600c8111156118c557fe5b1415156118d157600080fd5b6118da336127da565b15156118e557600080fd5b336008600084815260200190815260200160002060020160006101000a81548173ffffffffffffffffffffffffffffffffffffffff021916908373ffffffffffffffffffffffffffffffffffffffff1602179055503360086000848152602001908152602001600020601a0160006101000a81548173ffffffffffffffffffffffffffffffffffffffff021916908373ffffffffffffffffffffffffffffffffffffffff160217905550600c6008600084815260200190815260200160002060020160146101000a81548160ff0219169083600c8111156119c257fe5b0217905550817f0513f8569d804d90dd149e0e50db1c075f672ccfbb4ccabe023ff332ffa2196c60405160405180910390a25050565b611a0133611e90565b1515611a0c57600080fd5b611a1581614174565b50565b6000611a2e8260026141ce90919063ffffffff16565b9050919050565b806009600c811115611a4357fe5b6008600083815260200190815260200160002060020160149054906101000a900460ff16600c811115611a7257fe5b141515611a7e57600080fd5b6008600083815260200190815260200160002060180160009054906101000a900473ffffffffffffffffffffffffffffffffffffffff168073ffffffffffffffffffffffffffffffffffffffff163373ffffffffffffffffffffffffffffffffffffffff16141515611aef57600080fd5b600a6008600085815260200190815260200160002060020160146101000a81548160ff0219169083600c811115611b2257fe5b0217905550827fc45d1150d9c75df34f991dd286a910d790ce07ba5af619b7f7d37139c3c2cafc60405160405180910390a2505050565b611b6161285d565b1515611b6c57600080fd5b611b7581614262565b50565b611b8061285d565b1515611b8b57600080fd5b611b936127f7565b73ffffffffffffffffffffffffffffffffffffffff16ff5b826007600c811115611bb957fe5b6008600083815260200190815260200160002060020160149054906101000a900460ff16600c811115611be857fe5b141515611bf457600080fd5b6008600085815260200190815260200160002060030160009054906101000a900473ffffffffffffffffffffffffffffffffffffffff168073ffffffffffffffffffffffffffffffffffffffff163373ffffffffffffffffffffffffffffffffffffffff16141515611c6557600080fd5b83600860008781526020019081526020016000206015018190555082600860008781526020019081526020016000206016019080519060200190611caa9291906147a9565b50600880600087815260200190815260200160002060020160146101000a81548160ff0219169083600c811115611cdd57fe5b0217905550847fc2d347ecd36fc3f30bbabfe4f4a1d757006389de40b57f90127581f0dc263f46856040518082815260200191505060405180910390a25050505050565b826003600c811115611d2f57fe5b6008600083815260200190815260200160002060020160149054906101000a900460ff16600c811115611d5e57fe5b141515611d6a57600080fd5b6008600085815260200190815260200160002060030160009054906101000a900473ffffffffffffffffffffffffffffffffffffffff168073ffffffffffffffffffffffffffffffffffffffff163373ffffffffffffffffffffffffffffffffffffffff16141515611ddb57600080fd5b8360086000878152602001908152602001600020600f018190555082600860008781526020019081526020016000206010018190555060046008600087815260200190815260200160002060020160146101000a81548160ff0219169083600c811115611e4457fe5b0217905550847f62f891a6878eeed87134f828e39893ff59a336461396c6621878d31d82bdde8d8585604051808381526020018281526020019250505060405180910390a25050505050565b6000611ea68260056141ce90919063ffffffff16565b9050919050565b826002600c811115611ebb57fe5b6008600083815260200190815260200160002060020160149054906101000a900460ff16600c811115611eea57fe5b141515611ef657600080fd5b6008600085815260200190815260200160002060030160009054906101000a900473ffffffffffffffffffffffffffffffffffffffff168073ffffffffffffffffffffffffffffffffffffffff163373ffffffffffffffffffffffffffffffffffffffff16141515611f6757600080fd5b8360086000878152602001908152602001600020600d01819055508260086000878152602001908152602001600020600e018190555060036008600087815260200190815260200160002060020160146101000a81548160ff0219169083600c811115611fd057fe5b0217905550847fad5370f930a165bd63e04aa036b89fab01be560c5ac6b138e220ae94f776d4d28585604051808381526020018281526020019250505060405180910390a25050505050565b612025336142bc565b565b61203033614316565b565b6000806060600080600080600080600080600860008d815260200190815260200160002090508060010154816009015482600a0183600b015484600c015485600d015486600e015487600f015488601001548960110154878054600181600116156101000203166002900480601f01602080910402602001604051908101604052809291908181526020018280546001816001161561010002031660029004801561211e5780601f106120f35761010080835404028352916020019161211e565b820191906000526020600020905b81548152906001019060200180831161210157829003601f168201915b505050505097509a509a509a509a509a509a509a509a509a509a50509193959799509193959799565b61214f61285d565b151561215a57600080fd5b6121646000614370565b565b61216f3361414c565b151561217a57600080fd5b6121838161442e565b50565b600080600080600060608060608060606000600860008d81526020019081526020016000209050806000015481600101548260020160009054906101000a900473ffffffffffffffffffffffffffffffffffffffff168360020160149054906101000a900460ff16600c8111156121f957fe5b8460030160009054906101000a900473ffffffffffffffffffffffffffffffffffffffff168560040186600501876006018860070189600801859550848054600181600116156101000203166002900480601f0160208091040260200160405190810160405280929190818152602001828054600181600116156101000203166002900480156122ca5780601f1061229f576101008083540402835291602001916122ca565b820191906000526020600020905b8154815290600101906020018083116122ad57829003601f168201915b50505050509450838054600181600116156101000203166002900480601f0160208091040260200160405190810160405280929190818152602001828054600181600116156101000203166002900480156123665780601f1061233b57610100808354040283529160200191612366565b820191906000526020600020905b81548152906001019060200180831161234957829003601f168201915b50505050509350828054600181600116156101000203166002900480601f0160208091040260200160405190810160405280929190818152602001828054600181600116156101000203166002900480156124025780601f106123d757610100808354040283529160200191612402565b820191906000526020600020905b8154815290600101906020018083116123e557829003601f168201915b50505050509250818054600181600116156101000203166002900480601f01602080910402602001604051908101604052809291908181526020018280546001816001161561010002031660029004801561249e5780601f106124735761010080835404028352916020019161249e565b820191906000526020600020905b81548152906001019060200180831161248157829003601f168201915b50505050509150808054600181600116156101000203166002900480601f01602080910402602001604051908101604052809291908181526020018280546001816001161561010002031660029004801561253a5780601f1061250f5761010080835404028352916020019161253a565b820191906000526020600020905b81548152906001019060200180831161251d57829003601f168201915b505050505090509a509a509a509a509a509a509a509a509a509a50509193959799509193959799565b806006600c81111561257157fe5b6008600083815260200190815260200160002060020160149054906101000a900460ff16600c8111156125a057fe5b1415156125ac57600080fd5b6008600083815260200190815260200160002060030160009054906101000a900473ffffffffffffffffffffffffffffffffffffffff168073ffffffffffffffffffffffffffffffffffffffff163373ffffffffffffffffffffffffffffffffffffffff1614151561261d57600080fd5b60076008600085815260200190815260200160002060020160146101000a81548160ff0219169083600c81111561265057fe5b0217905550827f0869ab0322800b441c2ace7097217dfee49f6c8129437dd36e5e4146e0e6992860405160405180910390a2505050565b61269033611a18565b151561269b57600080fd5b60408051908101604052803373ffffffffffffffffffffffffffffffffffffffff16815260200182815250600a60008573ffffffffffffffffffffffffffffffffffffffff1673ffffffffffffffffffffffffffffffffffffffff168152602001908152602001600020836040518082805190602001908083835b60208310151561273b5780518252602082019150602081019050602083039250612716565b6001836020036101000a038019825116818451168082178552505050505050905001915050908152602001604051809103902060008201518160000160006101000a81548173ffffffffffffffffffffffffffffffffffffffff021916908373ffffffffffffffffffffffffffffffffffffffff16021790555060208201518160010190805190602001906127d1929190614829565b50905050505050565b60006127f08260036141ce90919063ffffffff16565b9050919050565b60008060009054906101000a900473ffffffffffffffffffffffffffffffffffffffff16905090565b61282933612840565b151561283457600080fd5b61283d81614488565b50565b60006128568260046141ce90919063ffffffff16565b9050919050565b60008060009054906101000a900473ffffffffffffffffffffffffffffffffffffffff1673ffffffffffffffffffffffffffffffffffffffff163373ffffffffffffffffffffffffffffffffffffffff1614905090565b6128bd3361414c565b15156128c857600080fd5b8760006008600083815260200190815260200160002060010154141515612957576040517f08c379a00000000000000000000000000000000000000000000000000000000081526004018080602001828103825260108152602001807f55504320616c726561647920757365640000000000000000000000000000000081525060200191505060405180910390fd5b6103806040519081016040528060075481526020018a81526020013373ffffffffffffffffffffffffffffffffffffffff1681526020016000600c81111561299b57fe5b81526020013373ffffffffffffffffffffffffffffffffffffffff168152602001898152602001888152602001878152602001868152602001858152602001848152602001838152602001600081526020016000815260200160008152602001600081526020016000815260200160008152602001600081526020016020604051908101604052806000815250815260200160206040519081016040528060008152508152602001602060405190810160405280600081525081526020016000815260200160206040519081016040528060008152508152602001600073ffffffffffffffffffffffffffffffffffffffff168152602001600073ffffffffffffffffffffffffffffffffffffffff168152602001600073ffffffffffffffffffffffffffffffffffffffff168152602001600073ffffffffffffffffffffffffffffffffffffffff16815250600860008b8152602001908152602001600020600082015181600001556020820151816001015560408201518160020160006101000a81548173ffffffffffffffffffffffffffffffffffffffff021916908373ffffffffffffffffffffffffffffffffffffffff16021790555060608201518160020160146101000a81548160ff0219169083600c811115612b7a57fe5b021790555060808201518160030160006101000a81548173ffffffffffffffffffffffffffffffffffffffff021916908373ffffffffffffffffffffffffffffffffffffffff16021790555060a0820151816004019080519060200190612be2929190614829565b5060c0820151816005019080519060200190612bff929190614829565b5060e0820151816006019080519060200190612c1c929190614829565b50610100820151816007019080519060200190612c3a929190614829565b50610120820151816008019080519060200190612c58929190614829565b50610140820151816009015561016082015181600a019080519060200190612c81929190614829565b5061018082015181600b01556101a082015181600c01556101c082015181600d01556101e082015181600e015561020082015181600f015561022082015181601001556102408201518160110155610260820151816012019080519060200190612cec929190614829565b50610280820151816013019080519060200190612d0a929190614829565b506102a0820151816014019080519060200190612d28929190614829565b506102c082015181601501556102e0820151816016019080519060200190612d51929190614829565b506103008201518160170160006101000a81548173ffffffffffffffffffffffffffffffffffffffff021916908373ffffffffffffffffffffffffffffffffffffffff1602179055506103208201518160180160006101000a81548173ffffffffffffffffffffffffffffffffffffffff021916908373ffffffffffffffffffffffffffffffffffffffff1602179055506103408201518160190160006101000a81548173ffffffffffffffffffffffffffffffffffffffff021916908373ffffffffffffffffffffffffffffffffffffffff16021790555061036082015181601a0160006101000a81548173ffffffffffffffffffffffffffffffffffffffff021916908373ffffffffffffffffffffffffffffffffffffffff160217905550905050600160075401600781905550887f9ccae00fd2be9395c2d9b26bfdda16afd213ccc4a998d7f99267d209ab7c2cc385856040518080602001838152602001828103825284818151815260200191508051906020019080838360005b83811015612eeb578082015181840152602081019050612ed0565b50505050905090810190601f168015612f185780820380516001836020036101000a031916815260200191505b50935050505060405180910390a2505050505050505050565b600060608060606000806060600080600080600860008d8152602001908152602001600020905080600101548160120182601301836014018460170160009054906101000a900473ffffffffffffffffffffffffffffffffffffffff168560150154866016018760180160009054906101000a900473ffffffffffffffffffffffffffffffffffffffff168860190160009054906101000a900473ffffffffffffffffffffffffffffffffffffffff1689601a0160009054906101000a900473ffffffffffffffffffffffffffffffffffffffff16888054600181600116156101000203166002900480601f01602080910402602001604051908101604052809291908181526020018280546001816001161561010002031660029004801561309b5780601f106130705761010080835404028352916020019161309b565b820191906000526020600020905b81548152906001019060200180831161307e57829003601f168201915b50505050509850878054600181600116156101000203166002900480601f0160208091040260200160405190810160405280929190818152602001828054600181600116156101000203166002900480156131375780601f1061310c57610100808354040283529160200191613137565b820191906000526020600020905b81548152906001019060200180831161311a57829003601f168201915b50505050509750868054600181600116156101000203166002900480601f0160208091040260200160405190810160405280929190818152602001828054600181600116156101000203166002900480156131d35780601f106131a8576101008083540402835291602001916131d3565b820191906000526020600020905b8154815290600101906020018083116131b657829003601f168201915b50505050509650859550838054600181600116156101000203166002900480601f0160208091040260200160405190810160405280929190818152602001828054600181600116156101000203166002900480156132725780601f1061324757610100808354040283529160200191613272565b820191906000526020600020905b81548152906001019060200180831161325557829003601f168201915b505050505093508292508191508090509a509a509a509a509a509a509a509a509a509a50509193959799509193959799565b806000600c8111156132b257fe5b6008600083815260200190815260200160002060020160149054906101000a900460ff16600c8111156132e157fe5b1415156132ed57600080fd5b6008600083815260200190815260200160002060030160009054906101000a900473ffffffffffffffffffffffffffffffffffffffff168073ffffffffffffffffffffffffffffffffffffffff163373ffffffffffffffffffffffffffffffffffffffff1614151561335e57600080fd5b60016008600085815260200190815260200160002060020160146101000a81548160ff0219169083600c81111561339157fe5b0217905550827f38b3ccf5c71716a234d8237d1ae8c68d7f83ec5b335a0370fe48e6d8d327fde260405160405180910390a2505050565b6133d1336144e2565b565b806008600c8111156133e157fe5b6008600083815260200190815260200160002060020160149054906101000a900460ff16600c81111561341057fe5b14151561341c57600080fd5b60086000838152602001908152602001600020601501548034101515156134ab576040517f08c379a000000000000000000000000000000000000000000000000000000000815260040180806020018281038252600a8152602001807f4e6f7420656e6f7567680000000000000000000000000000000000000000000081525060200191505060405180910390fd5b826134b533612840565b15156134c057600080fd5b336008600086815260200190815260200160002060020160006101000a81548173ffffffffffffffffffffffffffffffffffffffff021916908373ffffffffffffffffffffffffffffffffffffffff160217905550336008600086815260200190815260200160002060180160006101000a81548173ffffffffffffffffffffffffffffffffffffffff021916908373ffffffffffffffffffffffffffffffffffffffff16021790555060096008600086815260200190815260200160002060020160146101000a81548160ff0219169083600c81111561359d57fe5b02179055506000600860008681526020019081526020016000206015015490506008600086815260200190815260200160002060030160009054906101000a900473ffffffffffffffffffffffffffffffffffffffff1673ffffffffffffffffffffffffffffffffffffffff166108fc829081150290604051600060405180830381858888f19350505050158015613639573d6000803e3d6000fd5b50847fc4e50a10ecdbba8d26cab330220ec6f89afc954c92251c4e529542119b85c08460405160405180910390a250600060086000838152602001908152602001600020601501549050600081340390503373ffffffffffffffffffffffffffffffffffffffff166108fc829081150290604051600060405180830381858888f193505050501580156136d0573d6000803e3d6000fd5b50505050505050565b80600a600c8111156136e757fe5b6008600083815260200190815260200160002060020160149054906101000a900460ff16600c81111561371657fe5b14151561372257600080fd5b61372b33611e90565b151561373657600080fd5b336008600084815260200190815260200160002060020160006101000a81548173ffffffffffffffffffffffffffffffffffffffff021916908373ffffffffffffffffffffffffffffffffffffffff160217905550336008600084815260200190815260200160002060190160006101000a81548173ffffffffffffffffffffffffffffffffffffffff021916908373ffffffffffffffffffffffffffffffffffffffff160217905550600b6008600084815260200190815260200160002060020160146101000a81548160ff0219169083600c81111561381357fe5b0217905550817f14b6cc590b47a9656821bdb6db91b9e1537ca4d36ff65f265a661c8e13bfd09860405160405180910390a25050565b826001600c81111561385757fe5b6008600083815260200190815260200160002060020160149054906101000a900460ff16600c81111561388657fe5b14151561389257600080fd5b6008600085815260200190815260200160002060030160009054906101000a900473ffffffffffffffffffffffffffffffffffffffff168073ffffffffffffffffffffffffffffffffffffffff163373ffffffffffffffffffffffffffffffffffffffff1614151561390357600080fd5b8360086000878152602001908152602001600020600b01819055508260086000878152602001908152602001600020600c018190555060026008600087815260200190815260200160002060020160146101000a81548160ff0219169083600c81111561396c57fe5b0217905550847fca9ce9c106ba5e7b582e028d80530d52e9a4b23abdcd46b510041614247a0b688585604051808381526020018281526020019250505060405180910390a25050505050565b6139c13361453c565b565b6139cb61285d565b15156139d657600080fd5b6139df81614596565b50565b6139ea61285d565b15156139f557600080fd5b60096000838152602001908152602001600020819080600181540180825580915050906001820390600052602060002001600090919290919091509080519060200190613a439291906147a9565b50505050565b613a5161285d565b1515613a5c57600080fd5b600073ffffffffffffffffffffffffffffffffffffffff168173ffffffffffffffffffffffffffffffffffffffff1614151515613a9857600080fd5b613aa181614370565b50565b816004600c811115613ab257fe5b6008600083815260200190815260200160002060020160149054906101000a900460ff16600c811115613ae157fe5b141515613aed57600080fd5b6008600084815260200190815260200160002060030160009054906101000a900473ffffffffffffffffffffffffffffffffffffffff168073ffffffffffffffffffffffffffffffffffffffff163373ffffffffffffffffffffffffffffffffffffffff16141515613b5e57600080fd5b82600860008681526020019081526020016000206011018190555060056008600086815260200190815260200160002060020160146101000a81548160ff0219169083600c811115613bac57fe5b0217905550837f82b54792e48b2a4bcca8f5d8e701d4f763ddf743ae21219e32d5e9792615e012846040518082815260200191505060405180910390a250505050565b826005600c811115613bfd57fe5b6008600083815260200190815260200160002060020160149054906101000a900460ff16600c811115613c2c57fe5b141515613c3857600080fd5b6008600085815260200190815260200160002060030160009054906101000a900473ffffffffffffffffffffffffffffffffffffffff168073ffffffffffffffffffffffffffffffffffffffff163373ffffffffffffffffffffffffffffffffffffffff16141515613ca957600080fd5b60006008600087815260200190815260200160002060030160009054906101000a900473ffffffffffffffffffffffffffffffffffffffff16905084600860008881526020019081526020016000206012019080519060200190613d0e9291906147a9565b5083600860008881526020019081526020016000206013019080519060200190613d399291906147a9565b50600a60008273ffffffffffffffffffffffffffffffffffffffff1673ffffffffffffffffffffffffffffffffffffffff168152602001908152602001600020856040518082805190602001908083835b602083101515613daf5780518252602082019150602081019050602083039250613d8a565b6001836020036101000a0380198251168184511680821785525050505050509050019150509081526020016040518091039020600101600860008881526020019081526020016000206014019080546001816001161561010002031660029004613e1a9291906148a9565b50600a60008273ffffffffffffffffffffffffffffffffffffffff1673ffffffffffffffffffffffffffffffffffffffff168152602001908152602001600020856040518082805190602001908083835b602083101515613e905780518252602082019150602081019050602083039250613e6b565b6001836020036101000a038019825116818451168082178552505050505050905001915050908152602001604051809103902060000160009054906101000a900473ffffffffffffffffffffffffffffffffffffffff166008600088815260200190815260200160002060170160006101000a81548173ffffffffffffffffffffffffffffffffffffffff021916908373ffffffffffffffffffffffffffffffffffffffff16021790555060066008600088815260200190815260200160002060020160146101000a81548160ff0219169083600c811115613f6e57fe5b0217905550857f3977d140d49919c283df5ec8f9cfa04024931c4aaa44212b402c9a6f56a38e6c86600a60008573ffffffffffffffffffffffffffffffffffffffff1673ffffffffffffffffffffffffffffffffffffffff168152602001908152602001600020886040518082805190602001908083835b60208310151561400b5780518252602082019150602081019050602083039250613fe6565b6001836020036101000a0380198251168184511680821785525050505050509050019150509081526020016040518091039020600101604051808060200180602001838103835285818151815260200191508051906020019080838360005b8381101561408557808201518184015260208101905061406a565b50505050905090810190601f1680156140b25780820380516001836020036101000a031916815260200191505b508381038252848181546001816001161561010002031660029004815260200191508054600181600116156101000203166002900480156141345780601f1061410957610100808354040283529160200191614134565b820191906000526020600020905b81548152906001019060200180831161411757829003601f168201915b505094505050505060405180910390a2505050505050565b60006141628260016141ce90919063ffffffff16565b9050919050565b614172336145f0565b565b61418881600361464a90919063ffffffff16565b8073ffffffffffffffffffffffffffffffffffffffff167f28b26e7a3d20aedbc5f8f2ebf7da671c0491723a2b78f47a097b0e46dee0714260405160405180910390a250565b60008073ffffffffffffffffffffffffffffffffffffffff168273ffffffffffffffffffffffffffffffffffffffff161415151561420b57600080fd5b8260000160008373ffffffffffffffffffffffffffffffffffffffff1673ffffffffffffffffffffffffffffffffffffffff16815260200190815260200160002060009054906101000a900460ff16905092915050565b61427681600261464a90919063ffffffff16565b8073ffffffffffffffffffffffffffffffffffffffff167f9e685b594e54f370ef91382c0da443292b1378dec458f2a0d0009e7451547dab60405160405180910390a250565b6142d08160036146fa90919063ffffffff16565b8073ffffffffffffffffffffffffffffffffffffffff167fe3f5ed5f263f1f01764a96edfc7d025f511ec5f7d180e8816908b78bcf74f09860405160405180910390a250565b61432a8160046146fa90919063ffffffff16565b8073ffffffffffffffffffffffffffffffffffffffff167f126174f6cf49c81cdb4a9214c6b8f037bef55b4ec31e4fc776cea2a1c8a88d5960405160405180910390a250565b8073ffffffffffffffffffffffffffffffffffffffff166000809054906101000a900473ffffffffffffffffffffffffffffffffffffffff1673ffffffffffffffffffffffffffffffffffffffff167f8be0079c531659141344cd1fd0a4f28419497f9722a3daafe3b4186f6b6457e060405160405180910390a3806000806101000a81548173ffffffffffffffffffffffffffffffffffffffff021916908373ffffffffffffffffffffffffffffffffffffffff16021790555050565b61444281600461464a90919063ffffffff16565b8073ffffffffffffffffffffffffffffffffffffffff167fddbf200aa634dc3fb81cfd68583dd1040d1c751d335e1d86b631bde3e977fea860405160405180910390a250565b61449c81600561464a90919063ffffffff16565b8073ffffffffffffffffffffffffffffffffffffffff167f71ae26cad02663e3d92efd6ec56031a80d74a20c0ab4183faa8bf262261c9baa60405160405180910390a250565b6144f68160026146fa90919063ffffffff16565b8073ffffffffffffffffffffffffffffffffffffffff167f45cee538c02c2ddcdfc31b5b9ab913c23f938f81483c880884d94694b2985a3360405160405180910390a250565b6145508160056146fa90919063ffffffff16565b8073ffffffffffffffffffffffffffffffffffffffff167fdb7176e79cffef81cb01767dd0447a0b24bb72ca9778d4b245581086b2a7e6db60405160405180910390a250565b6145aa81600161464a90919063ffffffff16565b8073ffffffffffffffffffffffffffffffffffffffff167f2977383b0207d39ef14220620b6cf3e6c9b6e78592af90baeef6614ed2fcd2c660405160405180910390a250565b6146048160016146fa90919063ffffffff16565b8073ffffffffffffffffffffffffffffffffffffffff167fb78e9906c5bae930ccf756a5214c9855b1782f0eb30f9566de2384f034af48f360405160405180910390a250565b600073ffffffffffffffffffffffffffffffffffffffff168173ffffffffffffffffffffffffffffffffffffffff161415151561468657600080fd5b61469082826141ce565b15151561469c57600080fd5b60018260000160008373ffffffffffffffffffffffffffffffffffffffff1673ffffffffffffffffffffffffffffffffffffffff16815260200190815260200160002060006101000a81548160ff0219169083151502179055505050565b600073ffffffffffffffffffffffffffffffffffffffff168173ffffffffffffffffffffffffffffffffffffffff161415151561473657600080fd5b61474082826141ce565b151561474b57600080fd5b60008260000160008373ffffffffffffffffffffffffffffffffffffffff1673ffffffffffffffffffffffffffffffffffffffff16815260200190815260200160002060006101000a81548160ff0219169083151502179055505050565b828054600181600116156101000203166002900490600052602060002090601f016020900481019282601f106147ea57805160ff1916838001178555614818565b82800160010185558215614818579182015b828111156148175782518255916020019190600101906147fc565b5b5090506148259190614930565b5090565b828054600181600116156101000203166002900490600052602060002090601f016020900481019282601f1061486a57805160ff1916838001178555614898565b82800160010185558215614898579182015b8281111561489757825182559160200191906001019061487c565b5b5090506148a59190614930565b5090565b828054600181600116156101000203166002900490600052602060002090601f016020900481019282601f106148e2578054855561491f565b8280016001018555821561491f57600052602060002091601f016020900482015b8281111561491e578254825591600101919060010190614903565b5b50905061492c9190614930565b5090565b61495291905b8082111561494e576000816000905550600101614936565b5090565b9056fea165627a7a72305820511a836fbcfa464cc64fd1233ba34e7c136c87172ee11f0456521f19529f9fdb0029",
  "source": "pragma solidity ^0.5.0;\n\nimport './WineSupplyChainBase.sol';\n\ncontract WineSupplyChain is WineSupplyChainBase {\n\n    // Define a variable called 'upc' for Universal Product Code (UPC)\n    uint  upc;\n\n    // Define a variable called 'sku' for Stock Keeping Unit (SKU)\n    uint  sku;\n\n    // Define a public mapping 'items' that maps the UPC to an Item.\n    mapping (uint => Wine) items;\n\n    // Define a public mapping 'itemsHistory' that maps the UPC to an array of TxHash, \n    // that track its journey through the supply chain -- to be sent from DApp.\n    mapping (uint => string[]) itemsHistory;\n  \n    // Stores a certification, for each producer, per wine label\n    mapping (address => mapping(string => Certification)) internal certificationsGranted;\n\n\n    // In the constructor set 'owner' to the address that instantiated the contract\n    // and set 'sku' to 1\n    // and set 'upc' to 1\n    constructor() public payable {\n        transferOwnership(msg.sender);\n        sku = 1;\n        upc = 1;\n    }\n\n    // Define a modifier that checks the price and refunds the remaining balance\n    modifier checkValue(uint _upc) {\n        _;\n        uint _price = items[_upc].price;\n        uint amountToReturn = msg.value - _price;\n        msg.sender.transfer(amountToReturn);\n    }\n\n    // Check if the UPC is unique\n    modifier isNewUpc(uint _upc) {\n        require(items[_upc].upc == 0, \"UPC already used\");\n        _;\n    }\n\n    // Define a modifier that checks if the paid amount is sufficient to cover the price\n    modifier paidEnough(uint _price) { \n        require(msg.value >= _price, \"Not enough\"); \n        _;\n    }\n\n    // Define a modifier that checks if an item.state of a upc is GrapesHarvested\n    modifier grapesHarvested(uint _upc) {\n        require(items[_upc].itemState == State.GrapesHarvested);\n        _;\n    }\n\n    // Define a modifier that checks if an item.state of a upc is GrapesProcessed\n    modifier grapesProcessed(uint _upc) {\n        require(items[_upc].itemState == State.GrapesProcessed);\n        _;\n    }\n\n    // Define a modifier that checks if an item.state of a upc is WineProduced\n    modifier wineProduced(uint _upc) {\n        require(items[_upc].itemState == State.WineProduced);\n        _;\n    }\n\n    // Define a modifier that checks if an item.state of a upc is WineAged\n    modifier wineAged(uint _upc) {\n        require(items[_upc].itemState == State.WineAged);\n        _;\n    }\n\n    // Define a modifier that checks if an item.state of a upc is WineBottled\n    modifier wineBottled(uint _upc) {\n        require(items[_upc].itemState == State.WineBottled);\n        _;\n    }\n\n    // Define a modifier that checks if an item.state of a upc is WineRested\n    modifier wineRested(uint _upc) {\n        require(items[_upc].itemState == State.WineRested);\n        _;\n    }\n\n    // Define a modifier that checks if an item.state of a upc is WineLabeled\n    modifier wineLabeled(uint _upc) {\n        require(items[_upc].itemState == State.WineLabeled);\n        _;\n    }\n\n    // Define a modifier that checks if an item.state of a upc is WinePacked\n    modifier winePacked(uint _upc) {\n        require(items[_upc].itemState == State.WinePacked);\n        _;\n    }\n\n    // Define a modifier that checks if an item.state of a upc is WineForSale\n    modifier wineForSale(uint _upc) {\n        require(items[_upc].itemState == State.WineForSale);\n        _;\n    }\n\n    // Define a modifier that checks if an item.state of a upc is WineSold\n    modifier wineSold(uint _upc) {\n        require(items[_upc].itemState == State.WineSold);\n        _;\n    }\n\n    // Define a modifier that checks if an item.state of a upc is WineShipped\n    modifier wineShipped(uint _upc) {\n        require(items[_upc].itemState == State.WineShipped);\n        _;\n    }\n\n    // Define a modifier that checks if an item.state of a upc is WineReceived\n    modifier wineReceived(uint _upc) {\n        require(items[_upc].itemState == State.WineReceived);\n        _;\n    }\n\n    // Define a modifier that checks if an item.state of a upc is WinePurchased\n    modifier winePurchased(uint _upc) {\n        require(items[_upc].itemState == State.WinePurchased);\n        _;\n    }\n\n    // Define a function 'harvestItem' that allows a producer to mark an item 'GrapesHarvested'\n    function harvestGrapes\n    (\n        uint _upc, \n        string memory _originProducerName, \n        string memory _originProducerInformation, \n        string memory _originFarmLatitude, \n        string memory _originFarmLongitude, \n        string memory _grapeType,\n        uint _harvestDate,\n        string memory _harvestNotes\n    ) public \n      onlyProducer\n      isNewUpc(_upc) \n    {\n        // Add the new item as part of Harvest\n        items[_upc] = Wine(\n            sku,\n            _upc,\n            msg.sender,\n            State.GrapesHarvested,\n            msg.sender,\n            _originProducerName,\n            _originProducerInformation,\n            _originFarmLatitude,\n            _originFarmLongitude,\n            _grapeType,\n            _harvestDate,\n            _harvestNotes,\n            0, 0, 0, 0, 0, 0, 0, \"\", \"\", \"\",\n            0, \"\",\n            address(0),\n            address(0),\n            address(0),\n            address(0)\n        );\n        // Increment sku\n        sku = sku + 1;\n        // Emit the appropriate event\n        emit GrapesHarvested(_upc, _grapeType, _harvestDate);\n    }\n\n    // Define a function 'processtGrapes' that allows a producer to mark an item 'GrapesProcessed'\n    function processGrapes(uint _upc) public \n        // Call modifier to check if upc has passed previous supply chain stage\n        grapesHarvested(_upc)\n        // Call modifier to verify caller of this function\n        verifyCaller(items[_upc].originProducerID)\n    {\n        // Update the appropriate fields\n        items[_upc].itemState = State.GrapesProcessed;\n        // Emit the appropriate event\n        emit GrapesProcessed(_upc);\n    }\n\n    // Define a function 'produceWine' that allows a producer to mark an item 'WineProduced'\n    function produceWine(uint _upc, uint _wineLotID, uint _fermentationTankID) public \n        // Call modifier to check if upc has passed previous supply chain stage\n        grapesProcessed(_upc)\n        // Call modifier to verify caller of this function\n        verifyCaller(items[_upc].originProducerID) \n    {\n        // Update the appropriate fields\n        items[_upc].wineLotID = _wineLotID;\n        items[_upc].fermentationTankID = _fermentationTankID;\n        items[_upc].itemState = State.WineProduced;\n        // Emit the appropriate event\n        emit WineProduced(_upc, _wineLotID, _fermentationTankID);\n    }\n\n    // Define a function 'ageWine' that allows a producer to mark an item 'WineAged'\n    function ageWine(uint _upc, uint _barrelID, uint _numDaysAging) public \n        // Call modifier to check if upc has passed previous supply chain stage\n        wineProduced(_upc)\n        // Call modifier to verify caller of this function\n        verifyCaller(items[_upc].originProducerID) \n    {\n        // Update the appropriate fields\n        items[_upc].barrelID = _barrelID;\n        items[_upc].numDaysAging = _numDaysAging;\n        items[_upc].itemState = State.WineAged;\n        // Emit the appropriate event\n        emit WineAged(_upc, _barrelID, _numDaysAging);\n    }\n\n    // Define a function 'bottleUpWine' that allows a producer to mark an item 'WineBottled'\n    function bottleUpWine(uint _upc, uint _bottlingDate, uint _numBottlesLot) public \n        // Call modifier to check if upc has passed previous supply chain stage\n        wineAged(_upc)\n        // Call modifier to verify caller of this function\n        verifyCaller(items[_upc].originProducerID) \n    {\n        // Update the appropriate fields\n        items[_upc].bottlingDate = _bottlingDate;\n        items[_upc].numBottlesLot = _numBottlesLot;\n        items[_upc].itemState = State.WineBottled;\n        // Emit the appropriate event\n        emit WineBottled(_upc, _bottlingDate, _numBottlesLot);\n    }\n\n    // Define a function 'restWine' that allows a producer to mark an item 'WineRested'\n    function restWine(uint _upc, uint _numDaysResting) public \n        // Call modifier to check if upc has passed previous supply chain stage\n        wineBottled(_upc)\n        // Call modifier to verify caller of this function\n        verifyCaller(items[_upc].originProducerID) \n    {\n        // Update the appropriate fields\n        items[_upc].numDaysResting = _numDaysResting;\n        items[_upc].itemState = State.WineRested;\n        // Emit the appropriate event\n        emit WineRested(_upc, _numDaysResting);\n    }\n\n    // Define a function 'certifyWine' that allows a certifier to apply a wine certification to a label\n    function certifyProducer(address _producer, string memory _wineLabel, string memory _certification) public onlyCertifier {\n        certificationsGranted[_producer][_wineLabel] = Certification(msg.sender, _certification);\n    }\n\n    // Define a function 'labelWine' that allows a producer to mark an item 'WineLabeled'\n    function labelWine(uint _upc, string memory _wineLabel, string memory _wineInformation) public \n        // Call modifier to check if upc has passed previous supply chain stage\n        wineRested(_upc)\n        // Call modifier to verify caller of this function\n        verifyCaller(items[_upc].originProducerID) \n    {\n        address producer = items[_upc].originProducerID;\n        // Update the appropriate fields\n        items[_upc].wineLabel = _wineLabel;\n        items[_upc].wineInformation = _wineInformation;\n        items[_upc].certification = certificationsGranted[producer][_wineLabel].certification;\n        items[_upc].certifierID = certificationsGranted[producer][_wineLabel].certifierID;\n        items[_upc].itemState = State.WineLabeled;\n        // Emit the appropriate event\n        emit WineLabeled(_upc, _wineLabel, certificationsGranted[producer][_wineLabel].certification);\n    }\n\n    // Define a function 'packWine' that allows a producer to mark an item 'WinePacked'\n    function packWine(uint _upc) public \n        // Call modifier to check if upc has passed previous supply chain stage\n        wineLabeled(_upc)\n        // Call modifier to verify caller of this function\n        verifyCaller(items[_upc].originProducerID) \n    {\n        // Update the appropriate fields\n        items[_upc].itemState = State.WinePacked;\n        // Emit the appropriate event\n        emit WinePacked(_upc);\n    }\n\n    // Define a function 'sellWine' that allows a producer to mark an item 'WineForSale'\n    function sellWine(uint _upc, uint _price, string memory _imageHash) public \n        // Call modifier to check if upc has passed previous supply chain stage\n        winePacked(_upc)\n        // Call modifier to verify caller of this function\n        verifyCaller(items[_upc].originProducerID) \n    {\n        // Update the appropriate fields\n        items[_upc].price = _price;\n        items[_upc].imageHash = _imageHash;\n        items[_upc].itemState = State.WineForSale;\n        // Emit the appropriate event\n        emit WineForSale(_upc, _price);\n    }\n\n    // Define a function 'buyWine' that allows the distributor to mark an item 'WineSold'\n    // Use the above defined modifiers to check if the item is available for sale, if the buyer has paid enough, \n    // and any excess ether sent is refunded back to the buyer\n    function buyWine(uint _upc) public payable \n        // Call modifier to check if upc has passed previous supply chain stage\n        wineForSale(_upc)\n        // Call modifer to check if buyer has paid enough\n        paidEnough(items[_upc].price)\n        // Call modifer to send any excess ether back to buyer\n        checkValue(_upc)\n        // Call modifier to verify caller of this function\n        onlyDistributor\n    {\n        // Update the appropriate fields - ownerID, distributorID, itemState\n        items[_upc].ownerID = msg.sender;\n        items[_upc].distributorID = msg.sender;\n        items[_upc].itemState = State.WineSold;\n        // Transfer money to producer\n        uint price = items[_upc].price;\n        items[_upc].originProducerID.transfer(price);\n        // emit the appropriate event\n        emit WineSold(_upc);\n    }\n\n    // Define a function 'shipWine' that allows the distributor to mark an item 'WineShipped'\n    // Use the above modifers to check if the item is sold\n    function shipWine(uint _upc) public \n        // Call modifier to check if upc has passed previous supply chain stage\n        wineSold(_upc)\n        // Call modifier to verify caller of this function\n        verifyCaller(items[_upc].distributorID)\n    {\n        // Update the appropriate fields\n        items[_upc].itemState = State.WineShipped;\n        // Emit the appropriate event\n        emit WineShipped(_upc);\n    }\n\n    // Define a function 'receiveWine' that allows the retailer to mark an item 'WineReceived'\n    // Use the above modifiers to check if the item is shipped\n    function receiveWine(uint _upc) public \n        // Call modifier to check if upc has passed previous supply chain stage\n        wineShipped(_upc)\n        // Access Control List enforced by calling Smart Contract / DApp\n        onlyRetailer\n    {\n        // Update the appropriate fields - ownerID, retailerID, itemState\n        items[_upc].ownerID = msg.sender;\n        items[_upc].retailerID = msg.sender;\n        items[_upc].itemState = State.WineReceived;\n        // Emit the appropriate event\n        emit WineReceived(_upc);\n    }\n\n    // Define a function 'purchaseWine' that allows the consumer to mark an item 'WinePurchased'\n    // Use the above modifiers to check if the item is received\n    function purchaseWine(uint _upc) public \n        // Call modifier to check if upc has passed previous supply chain stage\n        wineReceived(_upc)\n        // Access Control List enforced by calling Smart Contract / DApp\n        onlyConsumer\n    {\n        // Update the appropriate fields - ownerID, consumerID, itemState\n        items[_upc].ownerID = msg.sender;\n        items[_upc].consumerID = msg.sender;\n        items[_upc].itemState = State.WinePurchased;\n        // Emit the appropriate event\n        emit WinePurchased(_upc);\n    }\n\n    // Define a function 'fetchItemBufferOne' that fetches the data\n    function fetchItemBufferOne(uint _upc) public view returns \n    (\n        uint    itemSKU,\n        uint    itemUPC,\n        address ownerID,\n        uint    itemState,\n        address originProducerID,\n        string  memory originProducerName,\n        string  memory originProducerInformation,\n        string  memory originFarmLatitude,\n        string  memory originFarmLongitude,\n        string  memory grapeType\n    ) \n    {\n        Wine storage wine = items[_upc];\n        return \n        (\n            wine.sku,\n            wine.upc,\n            wine.ownerID,\n            uint(wine.itemState),\n            wine.originProducerID,\n            wine.originProducerName,\n            wine.originProducerInformation,\n            wine.originFarmLatitude,\n            wine.originFarmLongitude,\n            wine.grapeType\n        );\n    }\n\n    // Define a function 'fetchItemBufferTwo' that fetches the data\n    function fetchItemBufferTwo(uint _upc) public view returns \n    (\n        uint    itemUPC,\n        uint    harvestDate,\n        string memory harvestNotes,\n        uint    wineLotID,\n        uint    fermentationTankID,\n        uint    barrelID,\n        uint    numDaysAging,\n        uint    bottlingDate,\n        uint    numBottlesLot,\n        uint    numDaysResting\n    ) \n    {\n        Wine storage wine = items[_upc];\n        return \n        (\n            wine.upc,\n            wine.harvestDate,\n            wine.harvestNotes,\n            wine.wineLotID,\n            wine.fermentationTankID,\n            wine.barrelID,\n            wine.numDaysAging,\n            wine.bottlingDate,\n            wine.numBottlesLot,\n            wine.numDaysResting\n        );\n    }\n\n    // Define a function 'fetchItemBufferThree' that fetches the data\n    function fetchItemBufferThree(uint _upc) public view returns \n    (\n        uint    itemUPC,\n        string memory wineLabel,\n        string memory wineInformation,\n        string memory certification,\n        address certifierID,\n        uint    price,\n        string memory imageHash,\n        address distributorID,\n        address retailerID,\n        address consumerID\n    ) \n    {\n        Wine storage wine = items[_upc];\n        return \n        (\n            wine.upc,\n            wine.wineLabel,\n            wine.wineInformation,\n            wine.certification,\n            wine.certifierID,\n            wine.price,\n            wine.imageHash,\n            wine.distributorID,\n            wine.retailerID,\n            wine.consumerID\n        );\n    }\n\n    // Includes a transaction hash associated to a UPC\n    function updateItemHistory(uint _upc, string memory _txHash) public onlyOwner {\n        itemsHistory[_upc].push(_txHash);\n    }\n\n}",
  "sourcePath": "/Users/paulohco/Documents/Development/github/winesupplychain/contracts/base/WineSupplyChain.sol",
  "compiler": {
    "name": "solc",
    "version": "0.5.0+commit.1d4f565a.Emscripten.clang"
  },
  "schemaVersion": "3.0.6",
  "updatedAt": "2019-05-15T04:34:53.527Z",
  "devdoc": {
    "methods": {
      "isOwner()": {
        "return": "true if `msg.sender` is the owner of the contract."
      },
      "owner()": {
        "return": "the address of the owner."
      },
      "renounceOwnership()": {
        "details": "Allows the current owner to relinquish control of the contract."
      },
      "transferOwnership(address)": {
        "details": "Allows the current owner to transfer control of the contract to a newOwner.",
        "params": {
          "newOwner": "The address to transfer ownership to."
        }
      }
    }
  },
  "userdoc": {
    "methods": {
      "renounceOwnership()": {
        "notice": "Renouncing to ownership will leave the contract without an owner. It will not be possible to call the functions with the `onlyOwner` modifier anymore."
      }
    }
  }
}