{
  "contractName": "WineSupplyChainBase",
  "abi": [
    {
      "constant": false,
      "inputs": [
        {
          "name": "account",
          "type": "address"
        }
      ],
      "name": "addConsumer",
      "outputs": [],
      "payable": false,
      "stateMutability": "nonpayable",
      "type": "function"
    },
    {
      "constant": true,
      "inputs": [
        {
          "name": "account",
          "type": "address"
        }
      ],
      "name": "isCertifier",
      "outputs": [
        {
          "name": "",
          "type": "bool"
        }
      ],
      "payable": false,
      "stateMutability": "view",
      "type": "function"
    },
    {
      "constant": false,
      "inputs": [
        {
          "name": "account",
          "type": "address"
        }
      ],
      "name": "addCertifier",
      "outputs": [],
      "payable": false,
      "stateMutability": "nonpayable",
      "type": "function"
    },
    {
      "constant": false,
      "inputs": [],
      "name": "kill",
      "outputs": [],
      "payable": false,
      "stateMutability": "nonpayable",
      "type": "function"
    },
    {
      "constant": true,
      "inputs": [
        {
          "name": "account",
          "type": "address"
        }
      ],
      "name": "isRetailer",
      "outputs": [
        {
          "name": "",
          "type": "bool"
        }
      ],
      "payable": false,
      "stateMutability": "view",
      "type": "function"
    },
    {
      "constant": false,
      "inputs": [],
      "name": "renounceConsumer",
      "outputs": [],
      "payable": false,
      "stateMutability": "nonpayable",
      "type": "function"
    },
    {
      "constant": false,
      "inputs": [],
      "name": "renounceDistributor",
      "outputs": [],
      "payable": false,
      "stateMutability": "nonpayable",
      "type": "function"
    },
    {
      "constant": false,
      "inputs": [],
      "name": "renounceOwnership",
      "outputs": [],
      "payable": false,
      "stateMutability": "nonpayable",
      "type": "function"
    },
    {
      "constant": false,
      "inputs": [
        {
          "name": "account",
          "type": "address"
        }
      ],
      "name": "addDistributor",
      "outputs": [],
      "payable": false,
      "stateMutability": "nonpayable",
      "type": "function"
    },
    {
      "constant": true,
      "inputs": [
        {
          "name": "account",
          "type": "address"
        }
      ],
      "name": "isConsumer",
      "outputs": [
        {
          "name": "",
          "type": "bool"
        }
      ],
      "payable": false,
      "stateMutability": "view",
      "type": "function"
    },
    {
      "constant": true,
      "inputs": [],
      "name": "owner",
      "outputs": [
        {
          "name": "",
          "type": "address"
        }
      ],
      "payable": false,
      "stateMutability": "view",
      "type": "function"
    },
    {
      "constant": false,
      "inputs": [
        {
          "name": "account",
          "type": "address"
        }
      ],
      "name": "addRetailer",
      "outputs": [],
      "payable": false,
      "stateMutability": "nonpayable",
      "type": "function"
    },
    {
      "constant": true,
      "inputs": [
        {
          "name": "account",
          "type": "address"
        }
      ],
      "name": "isDistributor",
      "outputs": [
        {
          "name": "",
          "type": "bool"
        }
      ],
      "payable": false,
      "stateMutability": "view",
      "type": "function"
    },
    {
      "constant": true,
      "inputs": [],
      "name": "isOwner",
      "outputs": [
        {
          "name": "",
          "type": "bool"
        }
      ],
      "payable": false,
      "stateMutability": "view",
      "type": "function"
    },
    {
      "constant": false,
      "inputs": [],
      "name": "renounceCertifier",
      "outputs": [],
      "payable": false,
      "stateMutability": "nonpayable",
      "type": "function"
    },
    {
      "constant": false,
      "inputs": [],
      "name": "renounceRetailer",
      "outputs": [],
      "payable": false,
      "stateMutability": "nonpayable",
      "type": "function"
    },
    {
      "constant": false,
      "inputs": [
        {
          "name": "account",
          "type": "address"
        }
      ],
      "name": "addProducer",
      "outputs": [],
      "payable": false,
      "stateMutability": "nonpayable",
      "type": "function"
    },
    {
      "constant": false,
      "inputs": [
        {
          "name": "newOwner",
          "type": "address"
        }
      ],
      "name": "transferOwnership",
      "outputs": [],
      "payable": false,
      "stateMutability": "nonpayable",
      "type": "function"
    },
    {
      "constant": true,
      "inputs": [
        {
          "name": "account",
          "type": "address"
        }
      ],
      "name": "isProducer",
      "outputs": [
        {
          "name": "",
          "type": "bool"
        }
      ],
      "payable": false,
      "stateMutability": "view",
      "type": "function"
    },
    {
      "constant": false,
      "inputs": [],
      "name": "renounceProducer",
      "outputs": [],
      "payable": false,
      "stateMutability": "nonpayable",
      "type": "function"
    },
    {
      "anonymous": false,
      "inputs": [
        {
          "indexed": true,
          "name": "upc",
          "type": "uint256"
        },
        {
          "indexed": false,
          "name": "grapeType",
          "type": "string"
        },
        {
          "indexed": false,
          "name": "harvestDate",
          "type": "uint256"
        }
      ],
      "name": "GrapesHarvested",
      "type": "event"
    },
    {
      "anonymous": false,
      "inputs": [
        {
          "indexed": true,
          "name": "upc",
          "type": "uint256"
        }
      ],
      "name": "GrapesProcessed",
      "type": "event"
    },
    {
      "anonymous": false,
      "inputs": [
        {
          "indexed": true,
          "name": "upc",
          "type": "uint256"
        },
        {
          "indexed": false,
          "name": "wineLotID",
          "type": "uint256"
        },
        {
          "indexed": false,
          "name": "fermentationTankID",
          "type": "uint256"
        }
      ],
      "name": "WineProduced",
      "type": "event"
    },
    {
      "anonymous": false,
      "inputs": [
        {
          "indexed": true,
          "name": "upc",
          "type": "uint256"
        },
        {
          "indexed": false,
          "name": "barrelID",
          "type": "uint256"
        },
        {
          "indexed": false,
          "name": "numDaysAging",
          "type": "uint256"
        }
      ],
      "name": "WineAged",
      "type": "event"
    },
    {
      "anonymous": false,
      "inputs": [
        {
          "indexed": true,
          "name": "upc",
          "type": "uint256"
        },
        {
          "indexed": false,
          "name": "bottlingDate",
          "type": "uint256"
        },
        {
          "indexed": false,
          "name": "numBottlesLot",
          "type": "uint256"
        }
      ],
      "name": "WineBottled",
      "type": "event"
    },
    {
      "anonymous": false,
      "inputs": [
        {
          "indexed": true,
          "name": "upc",
          "type": "uint256"
        },
        {
          "indexed": false,
          "name": "numDaysResting",
          "type": "uint256"
        }
      ],
      "name": "WineRested",
      "type": "event"
    },
    {
      "anonymous": false,
      "inputs": [
        {
          "indexed": true,
          "name": "upc",
          "type": "uint256"
        },
        {
          "indexed": false,
          "name": "wineLabel",
          "type": "string"
        },
        {
          "indexed": false,
          "name": "certification",
          "type": "string"
        }
      ],
      "name": "WineLabeled",
      "type": "event"
    },
    {
      "anonymous": false,
      "inputs": [
        {
          "indexed": true,
          "name": "upc",
          "type": "uint256"
        }
      ],
      "name": "WinePacked",
      "type": "event"
    },
    {
      "anonymous": false,
      "inputs": [
        {
          "indexed": true,
          "name": "upc",
          "type": "uint256"
        },
        {
          "indexed": false,
          "name": "price",
          "type": "uint256"
        }
      ],
      "name": "WineForSale",
      "type": "event"
    },
    {
      "anonymous": false,
      "inputs": [
        {
          "indexed": true,
          "name": "upc",
          "type": "uint256"
        }
      ],
      "name": "WineSold",
      "type": "event"
    },
    {
      "anonymous": false,
      "inputs": [
        {
          "indexed": true,
          "name": "upc",
          "type": "uint256"
        }
      ],
      "name": "WineShipped",
      "type": "event"
    },
    {
      "anonymous": false,
      "inputs": [
        {
          "indexed": true,
          "name": "upc",
          "type": "uint256"
        }
      ],
      "name": "WineReceived",
      "type": "event"
    },
    {
      "anonymous": false,
      "inputs": [
        {
          "indexed": true,
          "name": "upc",
          "type": "uint256"
        }
      ],
      "name": "WinePurchased",
      "type": "event"
    },
    {
      "anonymous": false,
      "inputs": [
        {
          "indexed": true,
          "name": "account",
          "type": "address"
        }
      ],
      "name": "ProducerAdded",
      "type": "event"
    },
    {
      "anonymous": false,
      "inputs": [
        {
          "indexed": true,
          "name": "account",
          "type": "address"
        }
      ],
      "name": "ProducerRemoved",
      "type": "event"
    },
    {
      "anonymous": false,
      "inputs": [
        {
          "indexed": true,
          "name": "account",
          "type": "address"
        }
      ],
      "name": "CertifierAdded",
      "type": "event"
    },
    {
      "anonymous": false,
      "inputs": [
        {
          "indexed": true,
          "name": "account",
          "type": "address"
        }
      ],
      "name": "CertifierRemoved",
      "type": "event"
    },
    {
      "anonymous": false,
      "inputs": [
        {
          "indexed": true,
          "name": "account",
          "type": "address"
        }
      ],
      "name": "ConsumerAdded",
      "type": "event"
    },
    {
      "anonymous": false,
      "inputs": [
        {
          "indexed": true,
          "name": "account",
          "type": "address"
        }
      ],
      "name": "ConsumerRemoved",
      "type": "event"
    },
    {
      "anonymous": false,
      "inputs": [
        {
          "indexed": true,
          "name": "account",
          "type": "address"
        }
      ],
      "name": "DistributorAdded",
      "type": "event"
    },
    {
      "anonymous": false,
      "inputs": [
        {
          "indexed": true,
          "name": "account",
          "type": "address"
        }
      ],
      "name": "DistributorRemoved",
      "type": "event"
    },
    {
      "anonymous": false,
      "inputs": [
        {
          "indexed": true,
          "name": "account",
          "type": "address"
        }
      ],
      "name": "RetailerAdded",
      "type": "event"
    },
    {
      "anonymous": false,
      "inputs": [
        {
          "indexed": true,
          "name": "account",
          "type": "address"
        }
      ],
      "name": "RetailerRemoved",
      "type": "event"
    },
    {
      "anonymous": false,
      "inputs": [
        {
          "indexed": true,
          "name": "account",
          "type": "address"
        },
        {
          "indexed": false,
          "name": "result",
          "type": "bool"
        }
      ],
      "name": "ProducerToBeConfirmed",
      "type": "event"
    },
    {
      "anonymous": false,
      "inputs": [
        {
          "indexed": true,
          "name": "previousOwner",
          "type": "address"
        },
        {
          "indexed": true,
          "name": "newOwner",
          "type": "address"
        }
      ],
      "name": "OwnershipTransferred",
      "type": "event"
    }
  ],
  "bytecode": "0x6080604052336000806101000a81548173ffffffffffffffffffffffffffffffffffffffff021916908373ffffffffffffffffffffffffffffffffffffffff1602179055506000809054906101000a900473ffffffffffffffffffffffffffffffffffffffff1673ffffffffffffffffffffffffffffffffffffffff16600073ffffffffffffffffffffffffffffffffffffffff167f8be0079c531659141344cd1fd0a4f28419497f9722a3daafe3b4186f6b6457e060405160405180910390a3620000da3362000148640100000000026401000000009004565b620000f433620001b2640100000000026401000000009004565b6200010e336200021c640100000000026401000000009004565b620001283362000286640100000000026401000000009004565b6200014233620002f0640100000000026401000000009004565b620004b2565b6200016c8160016200035a6401000000000262000d9a179091906401000000009004565b8073ffffffffffffffffffffffffffffffffffffffff167f2977383b0207d39ef14220620b6cf3e6c9b6e78592af90baeef6614ed2fcd2c660405160405180910390a250565b620001d68160026200035a6401000000000262000d9a179091906401000000009004565b8073ffffffffffffffffffffffffffffffffffffffff167f9e685b594e54f370ef91382c0da443292b1378dec458f2a0d0009e7451547dab60405160405180910390a250565b620002408160046200035a6401000000000262000d9a179091906401000000009004565b8073ffffffffffffffffffffffffffffffffffffffff167fddbf200aa634dc3fb81cfd68583dd1040d1c751d335e1d86b631bde3e977fea860405160405180910390a250565b620002aa8160056200035a6401000000000262000d9a179091906401000000009004565b8073ffffffffffffffffffffffffffffffffffffffff167f71ae26cad02663e3d92efd6ec56031a80d74a20c0ab4183faa8bf262261c9baa60405160405180910390a250565b620003148160036200035a6401000000000262000d9a179091906401000000009004565b8073ffffffffffffffffffffffffffffffffffffffff167f28b26e7a3d20aedbc5f8f2ebf7da671c0491723a2b78f47a097b0e46dee0714260405160405180910390a250565b600073ffffffffffffffffffffffffffffffffffffffff168173ffffffffffffffffffffffffffffffffffffffff16141515156200039757600080fd5b620003b282826200041d640100000000026401000000009004565b151515620003bf57600080fd5b60018260000160008373ffffffffffffffffffffffffffffffffffffffff1673ffffffffffffffffffffffffffffffffffffffff16815260200190815260200160002060006101000a81548160ff0219169083151502179055505050565b60008073ffffffffffffffffffffffffffffffffffffffff168273ffffffffffffffffffffffffffffffffffffffff16141515156200045b57600080fd5b8260000160008373ffffffffffffffffffffffffffffffffffffffff1673ffffffffffffffffffffffffffffffffffffffff16815260200190815260200160002060009054906101000a900460ff16905092915050565b610f2580620004c26000396000f3fe608060405260043610610112576000357c0100000000000000000000000000000000000000000000000000000000900463ffffffff168063112940f9146101175780631c2353e1146101685780632b198366146101d157806341c0e1b5146102225780635da09b881461023957806361e6982d146102a2578063644241db146102b9578063715018a6146102d05780637250e224146102e7578063834ff739146103385780638da5cb5b146103a15780638ec4f505146103f85780638f0c86fa146104495780638f32d59b146104b2578063c9cb2d04146104e1578063db0e6a2f146104f8578063ddf801661461050f578063f2fde38b14610560578063f5521022146105b1578063f9b867d81461061a575b600080fd5b34801561012357600080fd5b506101666004803603602081101561013a57600080fd5b81019080803573ffffffffffffffffffffffffffffffffffffffff169060200190929190505050610631565b005b34801561017457600080fd5b506101b76004803603602081101561018b57600080fd5b81019080803573ffffffffffffffffffffffffffffffffffffffff169060200190929190505050610651565b604051808215151515815260200191505060405180910390f35b3480156101dd57600080fd5b50610220600480360360208110156101f457600080fd5b81019080803573ffffffffffffffffffffffffffffffffffffffff16906020019092919050505061066e565b005b34801561022e57600080fd5b5061023761068d565b005b34801561024557600080fd5b506102886004803603602081101561025c57600080fd5b81019080803573ffffffffffffffffffffffffffffffffffffffff1690602001909291905050506106c0565b604051808215151515815260200191505060405180910390f35b3480156102ae57600080fd5b506102b76106dd565b005b3480156102c557600080fd5b506102ce6106e8565b005b3480156102dc57600080fd5b506102e56106f3565b005b3480156102f357600080fd5b506103366004803603602081101561030a57600080fd5b81019080803573ffffffffffffffffffffffffffffffffffffffff169060200190929190505050610712565b005b34801561034457600080fd5b506103876004803603602081101561035b57600080fd5b81019080803573ffffffffffffffffffffffffffffffffffffffff169060200190929190505050610732565b604051808215151515815260200191505060405180910390f35b3480156103ad57600080fd5b506103b661074f565b604051808273ffffffffffffffffffffffffffffffffffffffff1673ffffffffffffffffffffffffffffffffffffffff16815260200191505060405180910390f35b34801561040457600080fd5b506104476004803603602081101561041b57600080fd5b81019080803573ffffffffffffffffffffffffffffffffffffffff169060200190929190505050610778565b005b34801561045557600080fd5b506104986004803603602081101561046c57600080fd5b81019080803573ffffffffffffffffffffffffffffffffffffffff169060200190929190505050610798565b604051808215151515815260200191505060405180910390f35b3480156104be57600080fd5b506104c76107b5565b604051808215151515815260200191505060405180910390f35b3480156104ed57600080fd5b506104f661080c565b005b34801561050457600080fd5b5061050d610817565b005b34801561051b57600080fd5b5061055e6004803603602081101561053257600080fd5b81019080803573ffffffffffffffffffffffffffffffffffffffff169060200190929190505050610822565b005b34801561056c57600080fd5b506105af6004803603602081101561058357600080fd5b81019080803573ffffffffffffffffffffffffffffffffffffffff169060200190929190505050610841565b005b3480156105bd57600080fd5b50610600600480360360208110156105d457600080fd5b81019080803573ffffffffffffffffffffffffffffffffffffffff16906020019092919050505061089c565b604051808215151515815260200191505060405180910390f35b34801561062657600080fd5b5061062f6108b9565b005b61063a336106c0565b151561064557600080fd5b61064e816108c4565b50565b600061066782600261091e90919063ffffffff16565b9050919050565b6106766107b5565b151561068157600080fd5b61068a816109b2565b50565b6106956107b5565b15156106a057600080fd5b6106a861074f565b73ffffffffffffffffffffffffffffffffffffffff16ff5b60006106d682600561091e90919063ffffffff16565b9050919050565b6106e633610a0c565b565b6106f133610a66565b565b6106fb6107b5565b151561070657600080fd5b6107106000610ac0565b565b61071b3361089c565b151561072657600080fd5b61072f81610b7e565b50565b600061074882600361091e90919063ffffffff16565b9050919050565b60008060009054906101000a900473ffffffffffffffffffffffffffffffffffffffff16905090565b61078133610798565b151561078c57600080fd5b61079581610bd8565b50565b60006107ae82600461091e90919063ffffffff16565b9050919050565b60008060009054906101000a900473ffffffffffffffffffffffffffffffffffffffff1673ffffffffffffffffffffffffffffffffffffffff163373ffffffffffffffffffffffffffffffffffffffff1614905090565b61081533610c32565b565b61082033610c8c565b565b61082a6107b5565b151561083557600080fd5b61083e81610ce6565b50565b6108496107b5565b151561085457600080fd5b600073ffffffffffffffffffffffffffffffffffffffff168173ffffffffffffffffffffffffffffffffffffffff161415151561089057600080fd5b61089981610ac0565b50565b60006108b282600161091e90919063ffffffff16565b9050919050565b6108c233610d40565b565b6108d8816003610d9a90919063ffffffff16565b8073ffffffffffffffffffffffffffffffffffffffff167f28b26e7a3d20aedbc5f8f2ebf7da671c0491723a2b78f47a097b0e46dee0714260405160405180910390a250565b60008073ffffffffffffffffffffffffffffffffffffffff168273ffffffffffffffffffffffffffffffffffffffff161415151561095b57600080fd5b8260000160008373ffffffffffffffffffffffffffffffffffffffff1673ffffffffffffffffffffffffffffffffffffffff16815260200190815260200160002060009054906101000a900460ff16905092915050565b6109c6816002610d9a90919063ffffffff16565b8073ffffffffffffffffffffffffffffffffffffffff167f9e685b594e54f370ef91382c0da443292b1378dec458f2a0d0009e7451547dab60405160405180910390a250565b610a20816003610e4a90919063ffffffff16565b8073ffffffffffffffffffffffffffffffffffffffff167fe3f5ed5f263f1f01764a96edfc7d025f511ec5f7d180e8816908b78bcf74f09860405160405180910390a250565b610a7a816004610e4a90919063ffffffff16565b8073ffffffffffffffffffffffffffffffffffffffff167f126174f6cf49c81cdb4a9214c6b8f037bef55b4ec31e4fc776cea2a1c8a88d5960405160405180910390a250565b8073ffffffffffffffffffffffffffffffffffffffff166000809054906101000a900473ffffffffffffffffffffffffffffffffffffffff1673ffffffffffffffffffffffffffffffffffffffff167f8be0079c531659141344cd1fd0a4f28419497f9722a3daafe3b4186f6b6457e060405160405180910390a3806000806101000a81548173ffffffffffffffffffffffffffffffffffffffff021916908373ffffffffffffffffffffffffffffffffffffffff16021790555050565b610b92816004610d9a90919063ffffffff16565b8073ffffffffffffffffffffffffffffffffffffffff167fddbf200aa634dc3fb81cfd68583dd1040d1c751d335e1d86b631bde3e977fea860405160405180910390a250565b610bec816005610d9a90919063ffffffff16565b8073ffffffffffffffffffffffffffffffffffffffff167f71ae26cad02663e3d92efd6ec56031a80d74a20c0ab4183faa8bf262261c9baa60405160405180910390a250565b610c46816002610e4a90919063ffffffff16565b8073ffffffffffffffffffffffffffffffffffffffff167f45cee538c02c2ddcdfc31b5b9ab913c23f938f81483c880884d94694b2985a3360405160405180910390a250565b610ca0816005610e4a90919063ffffffff16565b8073ffffffffffffffffffffffffffffffffffffffff167fdb7176e79cffef81cb01767dd0447a0b24bb72ca9778d4b245581086b2a7e6db60405160405180910390a250565b610cfa816001610d9a90919063ffffffff16565b8073ffffffffffffffffffffffffffffffffffffffff167f2977383b0207d39ef14220620b6cf3e6c9b6e78592af90baeef6614ed2fcd2c660405160405180910390a250565b610d54816001610e4a90919063ffffffff16565b8073ffffffffffffffffffffffffffffffffffffffff167fb78e9906c5bae930ccf756a5214c9855b1782f0eb30f9566de2384f034af48f360405160405180910390a250565b600073ffffffffffffffffffffffffffffffffffffffff168173ffffffffffffffffffffffffffffffffffffffff1614151515610dd657600080fd5b610de0828261091e565b151515610dec57600080fd5b60018260000160008373ffffffffffffffffffffffffffffffffffffffff1673ffffffffffffffffffffffffffffffffffffffff16815260200190815260200160002060006101000a81548160ff0219169083151502179055505050565b600073ffffffffffffffffffffffffffffffffffffffff168173ffffffffffffffffffffffffffffffffffffffff1614151515610e8657600080fd5b610e90828261091e565b1515610e9b57600080fd5b60008260000160008373ffffffffffffffffffffffffffffffffffffffff1673ffffffffffffffffffffffffffffffffffffffff16815260200190815260200160002060006101000a81548160ff021916908315150217905550505056fea165627a7a72305820561a6d34f39157c5427d3ae1c66721aea3b62aaaee4200c628e5add853e6f7520029",
  "source": "pragma solidity ^0.5.0;\n\nimport '../accesscontrol/AccessControl.sol';\n\ncontract WineSupplyChainBase is AccessControl {\n\n    // Define enum 'State' with the following values:\n    enum State { \n        GrapesHarvested,  // 0\n        GrapesProcessed,  // 1\n        WineProduced,     // 2\n        WineAged,         // 3\n        WineBottled,      // 4\n        WineRested,       // 5\n        WineLabeled,      // 6\n        WinePacked,       // 7\n        WineForSale,      // 8\n        WineSold,         // 9\n        WineShipped,      // 10\n        WineReceived,     // 11\n        WinePurchased     // 12\n    }\n\n    // Define a struct 'Item' with the following fields:\n    struct Wine {\n        uint      sku;  // Stock Keeping Unit (SKU)\n        uint      upc; // Universal Product Code (UPC), generated by the Farmer, goes on the package, can be verified by the Consumer\n        address   ownerID;  // Metamask-Ethereum address of the current owner as the product moves through stages\n        State     itemState;  // State as represented in the enum above\n        address   payable originProducerID; // Metamask-Ethereum address of the Producer\n        string    originProducerName; // Producer Name (winery name)\n        string    originProducerInformation;  // Producer Information\n        string    originFarmLatitude;   // Farm Latitude\n        string    originFarmLongitude;  // Farm Longitude\n        string    grapeType;  // Grape type (ex: Merlot, Cabernet Sauvignon, Chardonnay, etc)\n        uint      harvestDate; // Date when the grapes were harvested (format YYYYMMDD)\n        string    harvestNotes; // Extra info, like the location of the vineyards harvested, grapes total weight  \n        uint      wineLotID;      // ID of the wine lot\n        uint      fermentationTankID;   // ID of the tank used in the fermentation process\n        uint      barrelID;             // ID of the barrel used in the aging process\n        uint      numDaysAging;         // Number of days aging\n        uint      bottlingDate;  // Date when the wine was bottled up\n        uint      numBottlesLot;  // Number of bottles in this lot\n        uint      numDaysResting;       // Number of days resting\n        string    wineLabel;     // Label/type of the wine\n        string    wineInformation;  // Extra information like alcohol per volume, wine type, year, etc\n        string    certification;     // Certification labels (ex: IGT, IGP, DOC, DOP, DEMETER, etc)\n        uint      price;  // Price\n        string    imageHash; // Picture of the product\n        address payable certifierID;  // Metamask-Ethereum address of the Certifier\n        address payable distributorID;  // Metamask-Ethereum address of the Distributor\n        address payable retailerID; // Metamask-Ethereum address of the Retailer\n        address payable consumerID; // Metamask-Ethereum address of the Consumer\n    }\n\n    struct Certification {\n        address payable certifierID;\n        string certification;\n    }\n\n    // Define events with the same state values and accept 'upc' as input argument\n    event GrapesHarvested(uint indexed upc, string grapeType, uint harvestDate);\n    event GrapesProcessed(uint indexed upc);\n    event WineProduced(uint indexed  upc, uint wineLotID, uint fermentationTankID);\n    event WineAged(uint indexed upc, uint barrelID, uint numDaysAging);\n    event WineBottled(uint indexed upc, uint bottlingDate, uint numBottlesLot);\n    event WineRested(uint indexed upc, uint numDaysResting);\n    event WineLabeled(uint indexed upc, string wineLabel, string certification);\n    event WinePacked(uint indexed upc);\n    event WineForSale(uint indexed upc, uint price);\n    event WineSold(uint indexed upc);\n    event WineShipped(uint indexed upc);\n    event WineReceived(uint indexed upc);\n    event WinePurchased(uint indexed upc);\n\n\n}",
  "sourcePath": "/Users/paulohco/Documents/Development/github/winesupplychain/contracts/base/WineSupplyChainBase.sol",
  "compiler": {
    "name": "solc",
    "version": "0.5.0+commit.1d4f565a.Emscripten.clang"
  },
  "schemaVersion": "3.0.6",
  "updatedAt": "2019-05-14T13:24:27.921Z",
  "devdoc": {
    "methods": {
      "isOwner()": {
        "return": "true if `msg.sender` is the owner of the contract."
      },
      "owner()": {
        "return": "the address of the owner."
      },
      "renounceOwnership()": {
        "details": "Allows the current owner to relinquish control of the contract."
      },
      "transferOwnership(address)": {
        "details": "Allows the current owner to transfer control of the contract to a newOwner.",
        "params": {
          "newOwner": "The address to transfer ownership to."
        }
      }
    }
  },
  "userdoc": {
    "methods": {
      "renounceOwnership()": {
        "notice": "Renouncing to ownership will leave the contract without an owner. It will not be possible to call the functions with the `onlyOwner` modifier anymore."
      }
    }
  }
}